{
  "address": "0x19c40ac926DE7276fa69b85dfa35771CA2144bEa",
  "abi": [
    {
      "inputs": [
        {
          "internalType": "string",
          "name": "name_",
          "type": "string"
        },
        {
          "internalType": "string",
          "name": "symbol_",
          "type": "string"
        },
        {
          "internalType": "uint256",
          "name": "maxSupply",
          "type": "uint256"
        },
        {
          "internalType": "address",
          "name": "bagHolder",
          "type": "address"
        }
      ],
      "stateMutability": "nonpayable",
      "type": "constructor"
    },
    {
      "anonymous": false,
      "inputs": [
        {
          "indexed": true,
          "internalType": "address",
          "name": "owner",
          "type": "address"
        },
        {
          "indexed": true,
          "internalType": "address",
          "name": "spender",
          "type": "address"
        },
        {
          "indexed": false,
          "internalType": "uint256",
          "name": "value",
          "type": "uint256"
        }
      ],
      "name": "Approval",
      "type": "event"
    },
    {
      "anonymous": false,
      "inputs": [
        {
          "indexed": true,
          "internalType": "address",
          "name": "burner",
          "type": "address"
        },
        {
          "indexed": false,
          "internalType": "uint256",
          "name": "amount",
          "type": "uint256"
        }
      ],
      "name": "Burn",
      "type": "event"
    },
    {
      "anonymous": false,
      "inputs": [
        {
          "indexed": true,
          "internalType": "address",
          "name": "from",
          "type": "address"
        },
        {
          "indexed": true,
          "internalType": "address",
          "name": "to",
          "type": "address"
        },
        {
          "indexed": false,
          "internalType": "uint256",
          "name": "value",
          "type": "uint256"
        }
      ],
      "name": "Transfer",
      "type": "event"
    },
    {
      "inputs": [
        {
          "internalType": "address",
          "name": "owner",
          "type": "address"
        },
        {
          "internalType": "address",
          "name": "spender",
          "type": "address"
        }
      ],
      "name": "allowance",
      "outputs": [
        {
          "internalType": "uint256",
          "name": "",
          "type": "uint256"
        }
      ],
      "stateMutability": "view",
      "type": "function"
    },
    {
      "inputs": [
        {
          "internalType": "address",
          "name": "spender",
          "type": "address"
        },
        {
          "internalType": "uint256",
          "name": "amount",
          "type": "uint256"
        }
      ],
      "name": "approve",
      "outputs": [
        {
          "internalType": "bool",
          "name": "",
          "type": "bool"
        }
      ],
      "stateMutability": "nonpayable",
      "type": "function"
    },
    {
      "inputs": [
        {
          "internalType": "address",
          "name": "account",
          "type": "address"
        }
      ],
      "name": "balanceOf",
      "outputs": [
        {
          "internalType": "uint256",
          "name": "",
          "type": "uint256"
        }
      ],
      "stateMutability": "view",
      "type": "function"
    },
    {
      "inputs": [
        {
          "internalType": "uint256",
          "name": "amount",
          "type": "uint256"
        }
      ],
      "name": "burn",
      "outputs": [
        {
          "internalType": "bool",
          "name": "",
          "type": "bool"
        }
      ],
      "stateMutability": "nonpayable",
      "type": "function"
    },
    {
      "inputs": [],
      "name": "decimals",
      "outputs": [
        {
          "internalType": "uint8",
          "name": "",
          "type": "uint8"
        }
      ],
      "stateMutability": "view",
      "type": "function"
    },
    {
      "inputs": [
        {
          "internalType": "address",
          "name": "spender",
          "type": "address"
        },
        {
          "internalType": "uint256",
          "name": "subtractedValue",
          "type": "uint256"
        }
      ],
      "name": "decreaseAllowance",
      "outputs": [
        {
          "internalType": "bool",
          "name": "",
          "type": "bool"
        }
      ],
      "stateMutability": "nonpayable",
      "type": "function"
    },
    {
      "inputs": [
        {
          "internalType": "address",
          "name": "spender",
          "type": "address"
        },
        {
          "internalType": "uint256",
          "name": "addedValue",
          "type": "uint256"
        }
      ],
      "name": "increaseAllowance",
      "outputs": [
        {
          "internalType": "bool",
          "name": "",
          "type": "bool"
        }
      ],
      "stateMutability": "nonpayable",
      "type": "function"
    },
    {
      "inputs": [],
      "name": "name",
      "outputs": [
        {
          "internalType": "string",
          "name": "",
          "type": "string"
        }
      ],
      "stateMutability": "view",
      "type": "function"
    },
    {
      "inputs": [],
      "name": "symbol",
      "outputs": [
        {
          "internalType": "string",
          "name": "",
          "type": "string"
        }
      ],
      "stateMutability": "view",
      "type": "function"
    },
    {
      "inputs": [],
      "name": "totalSupply",
      "outputs": [
        {
          "internalType": "uint256",
          "name": "",
          "type": "uint256"
        }
      ],
      "stateMutability": "view",
      "type": "function"
    },
    {
      "inputs": [
        {
          "internalType": "address",
          "name": "recipient",
          "type": "address"
        },
        {
          "internalType": "uint256",
          "name": "amount",
          "type": "uint256"
        }
      ],
      "name": "transfer",
      "outputs": [
        {
          "internalType": "bool",
          "name": "",
          "type": "bool"
        }
      ],
      "stateMutability": "nonpayable",
      "type": "function"
    },
    {
      "inputs": [
        {
          "internalType": "address",
          "name": "sender",
          "type": "address"
        },
        {
          "internalType": "address",
          "name": "recipient",
          "type": "address"
        },
        {
          "internalType": "uint256",
          "name": "amount",
          "type": "uint256"
        }
      ],
      "name": "transferFrom",
      "outputs": [
        {
          "internalType": "bool",
          "name": "",
          "type": "bool"
        }
      ],
      "stateMutability": "nonpayable",
      "type": "function"
    }
  ],
  "transactionHash": "0x60d75f78122e6c243528e2a1855f05d9960ce5fd9e25ecc27b6f1db5e122633c",
  "args": [
    "NakamotOs",
    "BKFT",
    "2100000000000000000000",
    "0x1C35E441b21E528Dd8385Fd41d1578bE18E247D3"
  ],
  "solcInputHash": "3027d0abed3f5a4433d8dc4d32743e21",
  "bytecode": "0x60806040523480156200001157600080fd5b5060405162000fe438038062000fe48339810160408190526200003491620002ac565b8351849084906200004d9060039060208501906200015b565b508051620000639060049060208401906200015b565b5050506200007881836200008260201b60201c565b50505050620003f5565b6001600160a01b038216620000b45760405162461bcd60e51b8152600401620000ab906200033d565b60405180910390fd5b620000c26000838362000156565b8060026000828254620000d691906200037d565b90915550506001600160a01b03821660009081526020819052604081208054839290620001059084906200037d565b90915550506040516001600160a01b038316906000907fddf252ad1be2c89b69c2b068fc378daa952ba7f163c4a11628f55a4df523b3ef906200014a90859062000374565b60405180910390a35050565b505050565b8280546200016990620003a2565b90600052602060002090601f0160209004810192826200018d5760008555620001d8565b82601f10620001a857805160ff1916838001178555620001d8565b82800160010185558215620001d8579182015b82811115620001d8578251825591602001919060010190620001bb565b50620001e6929150620001ea565b5090565b5b80821115620001e65760008155600101620001eb565b600082601f83011262000212578081fd5b81516001600160401b03808211156200022f576200022f620003df565b6040516020601f8401601f1916820181018381118382101715620002575762000257620003df565b60405283825285840181018710156200026e578485fd5b8492505b8383101562000291578583018101518284018201529182019162000272565b83831115620002a257848185840101525b5095945050505050565b60008060008060808587031215620002c2578384fd5b84516001600160401b0380821115620002d9578586fd5b620002e78883890162000201565b95506020870151915080821115620002fd578485fd5b506200030c8782880162000201565b60408701516060880151919550935090506001600160a01b038116811462000332578182fd5b939692955090935050565b6020808252601f908201527f45524332303a206d696e7420746f20746865207a65726f206164647265737300604082015260600190565b90815260200190565b600082198211156200039d57634e487b7160e01b81526011600452602481fd5b500190565b600281046001821680620003b757607f821691505b60208210811415620003d957634e487b7160e01b600052602260045260246000fd5b50919050565b634e487b7160e01b600052604160045260246000fd5b610bdf80620004056000396000f3fe608060405234801561001057600080fd5b50600436106100b45760003560e01c806342966c681161007157806342966c681461014757806370a082311461015a57806395d89b411461016d578063a457c2d714610175578063a9059cbb14610188578063dd62ed3e1461019b576100b4565b806306fdde03146100b9578063095ea7b3146100d757806318160ddd146100f757806323b872dd1461010c578063313ce5671461011f5780633950935114610134575b600080fd5b6100c16101ae565b6040516100ce919061085b565b60405180910390f35b6100ea6100e536600461080f565b610240565b6040516100ce9190610850565b6100ff61025d565b6040516100ce9190610b12565b6100ea61011a3660046107d4565b610263565b610127610303565b6040516100ce9190610b1b565b6100ea61014236600461080f565b610308565b6100ea610155366004610838565b610357565b6100ff610168366004610781565b6103bb565b6100c16103d6565b6100ea61018336600461080f565b6103e5565b6100ea61019636600461080f565b610460565b6100ff6101a93660046107a2565b610474565b6060600380546101bd90610b58565b80601f01602080910402602001604051908101604052809291908181526020018280546101e990610b58565b80156102365780601f1061020b57610100808354040283529160200191610236565b820191906000526020600020905b81548152906001019060200180831161021957829003601f168201915b5050505050905090565b600061025461024d61049f565b84846104a3565b50600192915050565b60025490565b6000610270848484610557565b6001600160a01b03841660009081526001602052604081208161029161049f565b6001600160a01b03166001600160a01b03168152602001908152602001600020549050828110156102dd5760405162461bcd60e51b81526004016102d4906109bb565b60405180910390fd5b6102f8856102e961049f565b6102f38685610b41565b6104a3565b506001949350505050565b601290565b600061025461031561049f565b84846001600061032361049f565b6001600160a01b03908116825260208083019390935260409182016000908120918b16815292529020546102f39190610b29565b600061036a61036461049f565b8361067f565b61037261049f565b6001600160a01b03167fcc16f5dbb4873280815c1ee09dbd06736cffcc184412cf7a71a0fdb75d397ca5836040516103aa9190610b12565b60405180910390a25060015b919050565b6001600160a01b031660009081526020819052604090205490565b6060600480546101bd90610b58565b600080600160006103f461049f565b6001600160a01b03908116825260208083019390935260409182016000908120918816815292529020549050828110156104405760405162461bcd60e51b81526004016102d490610acd565b61045661044b61049f565b856102f38685610b41565b5060019392505050565b600061025461046d61049f565b8484610557565b6001600160a01b03918216600090815260016020908152604080832093909416825291909152205490565b3390565b6001600160a01b0383166104c95760405162461bcd60e51b81526004016102d490610a89565b6001600160a01b0382166104ef5760405162461bcd60e51b81526004016102d490610933565b6001600160a01b0380841660008181526001602090815260408083209487168084529490915290819020849055517f8c5be1e5ebec7d5bd14f71427d1e84f3dd0314c0f7b2291e5b200ac8c7c3b9259061054a908590610b12565b60405180910390a3505050565b6001600160a01b03831661057d5760405162461bcd60e51b81526004016102d490610a44565b6001600160a01b0382166105a35760405162461bcd60e51b81526004016102d4906108ae565b6105ae838383610765565b6001600160a01b038316600090815260208190526040902054818110156105e75760405162461bcd60e51b81526004016102d490610975565b6105f18282610b41565b6001600160a01b038086166000908152602081905260408082209390935590851681529081208054849290610627908490610b29565b92505081905550826001600160a01b0316846001600160a01b03167fddf252ad1be2c89b69c2b068fc378daa952ba7f163c4a11628f55a4df523b3ef846040516106719190610b12565b60405180910390a350505050565b6001600160a01b0382166106a55760405162461bcd60e51b81526004016102d490610a03565b6106b182600083610765565b6001600160a01b038216600090815260208190526040902054818110156106ea5760405162461bcd60e51b81526004016102d4906108f1565b6106f48282610b41565b6001600160a01b03841660009081526020819052604081209190915560028054849290610722908490610b41565b90915550506040516000906001600160a01b038516907fddf252ad1be2c89b69c2b068fc378daa952ba7f163c4a11628f55a4df523b3ef9061054a908690610b12565b505050565b80356001600160a01b03811681146103b657600080fd5b600060208284031215610792578081fd5b61079b8261076a565b9392505050565b600080604083850312156107b4578081fd5b6107bd8361076a565b91506107cb6020840161076a565b90509250929050565b6000806000606084860312156107e8578081fd5b6107f18461076a565b92506107ff6020850161076a565b9150604084013590509250925092565b60008060408385031215610821578182fd5b61082a8361076a565b946020939093013593505050565b600060208284031215610849578081fd5b5035919050565b901515815260200190565b6000602080835283518082850152825b818110156108875785810183015185820160400152820161086b565b818111156108985783604083870101525b50601f01601f1916929092016040019392505050565b60208082526023908201527f45524332303a207472616e7366657220746f20746865207a65726f206164647260408201526265737360e81b606082015260800190565b60208082526022908201527f45524332303a206275726e20616d6f756e7420657863656564732062616c616e604082015261636560f01b606082015260800190565b60208082526022908201527f45524332303a20617070726f766520746f20746865207a65726f206164647265604082015261737360f01b606082015260800190565b60208082526026908201527f45524332303a207472616e7366657220616d6f756e7420657863656564732062604082015265616c616e636560d01b606082015260800190565b60208082526028908201527f45524332303a207472616e7366657220616d6f756e74206578636565647320616040820152676c6c6f77616e636560c01b606082015260800190565b60208082526021908201527f45524332303a206275726e2066726f6d20746865207a65726f206164647265736040820152607360f81b606082015260800190565b60208082526025908201527f45524332303a207472616e736665722066726f6d20746865207a65726f206164604082015264647265737360d81b606082015260800190565b60208082526024908201527f45524332303a20617070726f76652066726f6d20746865207a65726f206164646040820152637265737360e01b606082015260800190565b60208082526025908201527f45524332303a2064656372656173656420616c6c6f77616e63652062656c6f77604082015264207a65726f60d81b606082015260800190565b90815260200190565b60ff91909116815260200190565b60008219821115610b3c57610b3c610b93565b500190565b600082821015610b5357610b53610b93565b500390565b600281046001821680610b6c57607f821691505b60208210811415610b8d57634e487b7160e01b600052602260045260246000fd5b50919050565b634e487b7160e01b600052601160045260246000fdfea26469706673582212206b5a53bc68cf0bc6be472056b6c86c326ec4ca4febd4878bff3e98d996fc04b064736f6c63430008000033",
  "devdoc": {
    "kind": "dev",
    "methods": {
      "allowance(address,address)": {
        "details": "See {IERC20-allowance}."
      },
      "approve(address,uint256)": {
        "details": "See {IERC20-approve}. Requirements: - `spender` cannot be the zero address."
      },
      "balanceOf(address)": {
        "details": "See {IERC20-balanceOf}."
      },
      "decimals()": {
        "details": "Returns the number of decimals used to get its user representation. For example, if `decimals` equals `2`, a balance of `505` tokens should be displayed to a user as `5,05` (`505 / 10 ** 2`). Tokens usually opt for a value of 18, imitating the relationship between Ether and Wei. This is the value {ERC20} uses, unless this function is overloaded; NOTE: This information is only used for _display_ purposes: it in no way affects any of the arithmetic of the contract, including {IERC20-balanceOf} and {IERC20-transfer}."
      },
      "decreaseAllowance(address,uint256)": {
        "details": "Atomically decreases the allowance granted to `spender` by the caller. This is an alternative to {approve} that can be used as a mitigation for problems described in {IERC20-approve}. Emits an {Approval} event indicating the updated allowance. Requirements: - `spender` cannot be the zero address. - `spender` must have allowance for the caller of at least `subtractedValue`."
      },
      "increaseAllowance(address,uint256)": {
        "details": "Atomically increases the allowance granted to `spender` by the caller. This is an alternative to {approve} that can be used as a mitigation for problems described in {IERC20-approve}. Emits an {Approval} event indicating the updated allowance. Requirements: - `spender` cannot be the zero address."
      },
      "name()": {
        "details": "Returns the name of the token."
      },
      "symbol()": {
        "details": "Returns the symbol of the token, usually a shorter version of the name."
      },
      "totalSupply()": {
        "details": "See {IERC20-totalSupply}."
      },
      "transfer(address,uint256)": {
        "details": "See {IERC20-transfer}. Requirements: - `recipient` cannot be the zero address. - the caller must have a balance of at least `amount`."
      },
      "transferFrom(address,address,uint256)": {
        "details": "See {IERC20-transferFrom}. Emits an {Approval} event indicating the updated allowance. This is not required by the EIP. See the note at the beginning of {ERC20}. Requirements: - `sender` and `recipient` cannot be the zero address. - `sender` must have a balance of at least `amount`. - the caller must have allowance for ``sender``'s tokens of at least `amount`."
      }
    },
    "version": 1
  },
  "userdoc": {
    "kind": "user",
    "methods": {},
    "version": 1
  },
  "storageLayout": {
    "storage": [
      {
        "astId": 12,
        "contract": "contracts/NakamotOs.sol:NakamotOs",
        "label": "_balances",
        "offset": 0,
        "slot": "0",
        "type": "t_mapping(t_address,t_uint256)"
      },
      {
        "astId": 18,
        "contract": "contracts/NakamotOs.sol:NakamotOs",
        "label": "_allowances",
        "offset": 0,
        "slot": "1",
        "type": "t_mapping(t_address,t_mapping(t_address,t_uint256))"
      },
      {
        "astId": 20,
        "contract": "contracts/NakamotOs.sol:NakamotOs",
        "label": "_totalSupply",
        "offset": 0,
        "slot": "2",
        "type": "t_uint256"
      },
      {
        "astId": 22,
        "contract": "contracts/NakamotOs.sol:NakamotOs",
        "label": "_name",
        "offset": 0,
        "slot": "3",
        "type": "t_string_storage"
      },
      {
        "astId": 24,
        "contract": "contracts/NakamotOs.sol:NakamotOs",
        "label": "_symbol",
        "offset": 0,
        "slot": "4",
        "type": "t_string_storage"
      }
    ],
    "types": {
      "t_address": {
        "encoding": "inplace",
        "label": "address",
        "numberOfBytes": "20"
      },
      "t_mapping(t_address,t_mapping(t_address,t_uint256))": {
        "encoding": "mapping",
        "key": "t_address",
        "label": "mapping(address => mapping(address => uint256))",
        "numberOfBytes": "32",
        "value": "t_mapping(t_address,t_uint256)"
      },
      "t_mapping(t_address,t_uint256)": {
        "encoding": "mapping",
        "key": "t_address",
        "label": "mapping(address => uint256)",
        "numberOfBytes": "32",
        "value": "t_uint256"
      },
      "t_string_storage": {
        "encoding": "bytes",
        "label": "string",
        "numberOfBytes": "32"
      },
      "t_uint256": {
        "encoding": "inplace",
        "label": "uint256",
        "numberOfBytes": "32"
      }
    }
  }
}