{
  "address": "0x8FF0073E3A9a33edE8E1309c5075A42E1794174a",
  "abi": [
    {
      "inputs": [
        {
          "internalType": "string",
          "name": "name_",
          "type": "string"
        },
        {
          "internalType": "string",
          "name": "symbol_",
          "type": "string"
        },
        {
          "internalType": "uint256",
          "name": "maxSupply",
          "type": "uint256"
        },
        {
          "internalType": "address",
          "name": "bagHolder",
          "type": "address"
        },
        {
          "internalType": "address",
          "name": "nftTokenAddress_",
          "type": "address"
        }
      ],
      "stateMutability": "nonpayable",
      "type": "constructor"
    },
    {
      "anonymous": false,
      "inputs": [
        {
          "indexed": true,
          "internalType": "address",
          "name": "owner",
          "type": "address"
        },
        {
          "indexed": true,
          "internalType": "address",
          "name": "spender",
          "type": "address"
        },
        {
          "indexed": false,
          "internalType": "uint256",
          "name": "value",
          "type": "uint256"
        }
      ],
      "name": "Approval",
      "type": "event"
    },
    {
      "anonymous": false,
      "inputs": [
        {
          "indexed": true,
          "internalType": "address",
          "name": "burner",
          "type": "address"
        },
        {
          "indexed": false,
          "internalType": "uint256",
          "name": "amount",
          "type": "uint256"
        }
      ],
      "name": "Burn",
      "type": "event"
    },
    {
      "anonymous": false,
      "inputs": [
        {
          "indexed": true,
          "internalType": "address",
          "name": "from",
          "type": "address"
        },
        {
          "indexed": true,
          "internalType": "address",
          "name": "to",
          "type": "address"
        },
        {
          "indexed": false,
          "internalType": "uint256",
          "name": "value",
          "type": "uint256"
        }
      ],
      "name": "Transfer",
      "type": "event"
    },
    {
      "inputs": [],
      "name": "MAX_NFT_SUPPLY",
      "outputs": [
        {
          "internalType": "uint256",
          "name": "",
          "type": "uint256"
        }
      ],
      "stateMutability": "view",
      "type": "function"
    },
    {
      "inputs": [],
      "name": "ONE",
      "outputs": [
        {
          "internalType": "uint256",
          "name": "",
          "type": "uint256"
        }
      ],
      "stateMutability": "view",
      "type": "function"
    },
    {
      "inputs": [
        {
          "internalType": "address",
          "name": "owner",
          "type": "address"
        },
        {
          "internalType": "address",
          "name": "spender",
          "type": "address"
        }
      ],
      "name": "allowance",
      "outputs": [
        {
          "internalType": "uint256",
          "name": "",
          "type": "uint256"
        }
      ],
      "stateMutability": "view",
      "type": "function"
    },
    {
      "inputs": [
        {
          "internalType": "address",
          "name": "spender",
          "type": "address"
        },
        {
          "internalType": "uint256",
          "name": "amount",
          "type": "uint256"
        }
      ],
      "name": "approve",
      "outputs": [
        {
          "internalType": "bool",
          "name": "",
          "type": "bool"
        }
      ],
      "stateMutability": "nonpayable",
      "type": "function"
    },
    {
      "inputs": [
        {
          "internalType": "address",
          "name": "account",
          "type": "address"
        }
      ],
      "name": "balanceOf",
      "outputs": [
        {
          "internalType": "uint256",
          "name": "",
          "type": "uint256"
        }
      ],
      "stateMutability": "view",
      "type": "function"
    },
    {
      "inputs": [
        {
          "internalType": "uint256",
          "name": "amount",
          "type": "uint256"
        }
      ],
      "name": "burn",
      "outputs": [
        {
          "internalType": "bool",
          "name": "",
          "type": "bool"
        }
      ],
      "stateMutability": "nonpayable",
      "type": "function"
    },
    {
      "inputs": [],
      "name": "decimals",
      "outputs": [
        {
          "internalType": "uint8",
          "name": "",
          "type": "uint8"
        }
      ],
      "stateMutability": "view",
      "type": "function"
    },
    {
      "inputs": [
        {
          "internalType": "address",
          "name": "spender",
          "type": "address"
        },
        {
          "internalType": "uint256",
          "name": "subtractedValue",
          "type": "uint256"
        }
      ],
      "name": "decreaseAllowance",
      "outputs": [
        {
          "internalType": "bool",
          "name": "",
          "type": "bool"
        }
      ],
      "stateMutability": "nonpayable",
      "type": "function"
    },
    {
      "inputs": [
        {
          "internalType": "address",
          "name": "spender",
          "type": "address"
        },
        {
          "internalType": "uint256",
          "name": "addedValue",
          "type": "uint256"
        }
      ],
      "name": "increaseAllowance",
      "outputs": [
        {
          "internalType": "bool",
          "name": "",
          "type": "bool"
        }
      ],
      "stateMutability": "nonpayable",
      "type": "function"
    },
    {
      "inputs": [],
      "name": "name",
      "outputs": [
        {
          "internalType": "string",
          "name": "",
          "type": "string"
        }
      ],
      "stateMutability": "view",
      "type": "function"
    },
    {
      "inputs": [],
      "name": "nftToken",
      "outputs": [
        {
          "internalType": "contract NakamotOsERC721",
          "name": "",
          "type": "address"
        }
      ],
      "stateMutability": "view",
      "type": "function"
    },
    {
      "inputs": [],
      "name": "symbol",
      "outputs": [
        {
          "internalType": "string",
          "name": "",
          "type": "string"
        }
      ],
      "stateMutability": "view",
      "type": "function"
    },
    {
      "inputs": [],
      "name": "totalSupply",
      "outputs": [
        {
          "internalType": "uint256",
          "name": "",
          "type": "uint256"
        }
      ],
      "stateMutability": "view",
      "type": "function"
    },
    {
      "inputs": [
        {
          "internalType": "address",
          "name": "recipient",
          "type": "address"
        },
        {
          "internalType": "uint256",
          "name": "amount",
          "type": "uint256"
        }
      ],
      "name": "transfer",
      "outputs": [
        {
          "internalType": "bool",
          "name": "",
          "type": "bool"
        }
      ],
      "stateMutability": "nonpayable",
      "type": "function"
    },
    {
      "inputs": [
        {
          "internalType": "address",
          "name": "sender",
          "type": "address"
        },
        {
          "internalType": "address",
          "name": "recipient",
          "type": "address"
        },
        {
          "internalType": "uint256",
          "name": "amount",
          "type": "uint256"
        }
      ],
      "name": "transferFrom",
      "outputs": [
        {
          "internalType": "bool",
          "name": "",
          "type": "bool"
        }
      ],
      "stateMutability": "nonpayable",
      "type": "function"
    }
  ],
  "transactionHash": "0x98b1385cf18cef0aa3b62c9aa4aa1aefc42af6f113b922bd763d3e92d4bf27bd",
  "args": [
    "NakamotOs",
    "BKFT",
    "2100000000000000000000",
    "0x1C35E441b21E528Dd8385Fd41d1578bE18E247D3",
    "0xDb8fD5459E9a19d6DF06cE0f52c2eDf38DD05e9B"
  ],
  "solcInputHash": "b609f392f4000a67f58692df7a1f0901",
  "bytecode": "0x608060405260d2600655670de0b6b3a76400006007553480156200002257600080fd5b506040516200134038038062001340833981810160405260a08110156200004857600080fd5b81019080805160405193929190846401000000008211156200006957600080fd5b9083019060208201858111156200007f57600080fd5b82516401000000008111828201881017156200009a57600080fd5b82525081516020918201929091019080838360005b83811015620000c9578181015183820152602001620000af565b50505050905090810190601f168015620000f75780820380516001836020036101000a031916815260200191505b50604052602001805160405193929190846401000000008211156200011b57600080fd5b9083019060208201858111156200013157600080fd5b82516401000000008111828201881017156200014c57600080fd5b82525081516020918201929091019080838360005b838110156200017b57818101518382015260200162000161565b50505050905090810190601f168015620001a95780820380516001836020036101000a031916815260200191505b50604090815260208281015191830151606090930151875192955092935086918691620001dc91600391850190620003c7565b508051620001f2906004906020840190620003c7565b50506005805460ff19166012179055506200021782846001600160e01b036200024816565b600580546001600160a01b0390921661010002610100600160a81b0319909216919091179055506200046c92505050565b6001600160a01b038216620002a4576040805162461bcd60e51b815260206004820152601f60248201527f45524332303a206d696e7420746f20746865207a65726f206164647265737300604482015290519081900360640190fd5b620002bb600083836001600160e01b036200036016565b620002d7816002546200036560201b6200082a1790919060201c565b6002556001600160a01b038216600090815260208181526040909120546200030a9183906200082a62000365821b17901c565b6001600160a01b0383166000818152602081815260408083209490945583518581529351929391927fddf252ad1be2c89b69c2b068fc378daa952ba7f163c4a11628f55a4df523b3ef9281900390910190a35050565b505050565b600082820183811015620003c0576040805162461bcd60e51b815260206004820152601b60248201527f536166654d6174683a206164646974696f6e206f766572666c6f770000000000604482015290519081900360640190fd5b9392505050565b828054600181600116156101000203166002900490600052602060002090601f016020900481019282601f106200040a57805160ff19168380011785556200043a565b828001600101855582156200043a579182015b828111156200043a5782518255916020019190600101906200041d565b50620004489291506200044c565b5090565b6200046991905b8082111562000448576000815560010162000453565b90565b610ec4806200047c6000396000f3fe608060405234801561001057600080fd5b50600436106100f55760003560e01c806370a0823111610097578063b5077f4411610066578063b5077f44146102f4578063c2ee3a08146102fc578063d06fcba814610304578063dd62ed3e14610328576100f5565b806370a082311461026e57806395d89b4114610294578063a457c2d71461029c578063a9059cbb146102c8576100f5565b806323b872dd116100d357806323b872dd146101d1578063313ce56714610207578063395093511461022557806342966c6814610251576100f5565b806306fdde03146100fa578063095ea7b31461017757806318160ddd146101b7575b600080fd5b610102610356565b6040805160208082528351818301528351919283929083019185019080838360005b8381101561013c578181015183820152602001610124565b50505050905090810190601f1680156101695780820380516001836020036101000a031916815260200191505b509250505060405180910390f35b6101a36004803603604081101561018d57600080fd5b506001600160a01b0381351690602001356103ec565b604080519115158252519081900360200190f35b6101bf610409565b60408051918252519081900360200190f35b6101a3600480360360608110156101e757600080fd5b506001600160a01b0381358116916020810135909116906040013561040f565b61020f61049c565b6040805160ff9092168252519081900360200190f35b6101a36004803603604081101561023b57600080fd5b506001600160a01b0381351690602001356104a5565b6101a36004803603602081101561026757600080fd5b50356104f9565b6101bf6004803603602081101561028457600080fd5b50356001600160a01b03166106e1565b6101026106fc565b6101a3600480360360408110156102b257600080fd5b506001600160a01b03813516906020013561075d565b6101a3600480360360408110156102de57600080fd5b506001600160a01b0381351690602001356107cb565b6101bf6107df565b6101bf6107e5565b61030c6107eb565b604080516001600160a01b039092168252519081900360200190f35b6101bf6004803603604081101561033e57600080fd5b506001600160a01b03813581169160200135166107ff565b60038054604080516020601f60026000196101006001881615020190951694909404938401819004810282018101909252828152606093909290918301828280156103e25780601f106103b7576101008083540402835291602001916103e2565b820191906000526020600020905b8154815290600101906020018083116103c557829003601f168201915b5050505050905090565b60006104006103f961088b565b848461088f565b50600192915050565b60025490565b600061041c84848461097b565b6104928461042861088b565b61048d85604051806060016040528060288152602001610dd8602891396001600160a01b038a1660009081526001602052604081209061046661088b565b6001600160a01b03168152602081019190915260400160002054919063ffffffff610ae216565b61088f565b5060019392505050565b60055460ff1690565b60006104006104b261088b565b8461048d85600160006104c361088b565b6001600160a01b03908116825260208083019390935260409182016000908120918c16815292529020549063ffffffff61082a16565b600061050c61050661088b565b83610b79565b61051461088b565b6001600160a01b03167fcc16f5dbb4873280815c1ee09dbd06736cffcc184412cf7a71a0fdb75d397ca5836040518082815260200191505060405180910390a26000600560019054906101000a90046001600160a01b03166001600160a01b03166318160ddd6040518163ffffffff1660e01b815260040160206040518083038186803b1580156105a457600080fd5b505afa1580156105b8573d6000803e3d6000fd5b505050506040513d60208110156105ce57600080fd5b50516006549091508110156104005760006105f460075485610c8190919063ffffffff16565b90506000610608828463ffffffff61082a16565b905060065481111561063c5761063961062c60065483610ce890919063ffffffff16565b839063ffffffff610ce816565b91505b60055461010090046001600160a01b03166340c10f1961065a61088b565b846040518363ffffffff1660e01b815260040180836001600160a01b03166001600160a01b0316815260200182815260200192505050602060405180830381600087803b1580156106aa57600080fd5b505af11580156106be573d6000803e3d6000fd5b505050506040513d60208110156106d457600080fd5b5050505050600192915050565b6001600160a01b031660009081526020819052604090205490565b60048054604080516020601f60026000196101006001881615020190951694909404938401819004810282018101909252828152606093909290918301828280156103e25780601f106103b7576101008083540402835291602001916103e2565b600061040061076a61088b565b8461048d85604051806060016040528060258152602001610e6a602591396001600061079461088b565b6001600160a01b03908116825260208083019390935260409182016000908120918d1681529252902054919063ffffffff610ae216565b60006104006107d861088b565b848461097b565b60065481565b60075481565b60055461010090046001600160a01b031681565b6001600160a01b03918216600090815260016020908152604080832093909416825291909152205490565b600082820183811015610884576040805162461bcd60e51b815260206004820152601b60248201527f536166654d6174683a206164646974696f6e206f766572666c6f770000000000604482015290519081900360640190fd5b9392505050565b3390565b6001600160a01b0383166108d45760405162461bcd60e51b8152600401808060200182810382526024815260200180610e466024913960400191505060405180910390fd5b6001600160a01b0382166109195760405162461bcd60e51b8152600401808060200182810382526022815260200180610d906022913960400191505060405180910390fd5b6001600160a01b03808416600081815260016020908152604080832094871680845294825291829020859055815185815291517f8c5be1e5ebec7d5bd14f71427d1e84f3dd0314c0f7b2291e5b200ac8c7c3b9259281900390910190a3505050565b6001600160a01b0383166109c05760405162461bcd60e51b8152600401808060200182810382526025815260200180610e216025913960400191505060405180910390fd5b6001600160a01b038216610a055760405162461bcd60e51b8152600401808060200182810382526023815260200180610d4b6023913960400191505060405180910390fd5b610a10838383610d45565b610a5381604051806060016040528060268152602001610db2602691396001600160a01b038616600090815260208190526040902054919063ffffffff610ae216565b6001600160a01b038085166000908152602081905260408082209390935590841681522054610a88908263ffffffff61082a16565b6001600160a01b038084166000818152602081815260409182902094909455805185815290519193928716927fddf252ad1be2c89b69c2b068fc378daa952ba7f163c4a11628f55a4df523b3ef92918290030190a3505050565b60008184841115610b715760405162461bcd60e51b81526004018080602001828103825283818151815260200191508051906020019080838360005b83811015610b36578181015183820152602001610b1e565b50505050905090810190601f168015610b635780820380516001836020036101000a031916815260200191505b509250505060405180910390fd5b505050900390565b6001600160a01b038216610bbe5760405162461bcd60e51b8152600401808060200182810382526021815260200180610e006021913960400191505060405180910390fd5b610bca82600083610d45565b610c0d81604051806060016040528060228152602001610d6e602291396001600160a01b038516600090815260208190526040902054919063ffffffff610ae216565b6001600160a01b038316600090815260208190526040902055600254610c39908263ffffffff610ce816565b6002556040805182815290516000916001600160a01b038516917fddf252ad1be2c89b69c2b068fc378daa952ba7f163c4a11628f55a4df523b3ef9181900360200190a35050565b6000808211610cd7576040805162461bcd60e51b815260206004820152601a60248201527f536166654d6174683a206469766973696f6e206279207a65726f000000000000604482015290519081900360640190fd5b818381610ce057fe5b049392505050565b600082821115610d3f576040805162461bcd60e51b815260206004820152601e60248201527f536166654d6174683a207375627472616374696f6e206f766572666c6f770000604482015290519081900360640190fd5b50900390565b50505056fe45524332303a207472616e7366657220746f20746865207a65726f206164647265737345524332303a206275726e20616d6f756e7420657863656564732062616c616e636545524332303a20617070726f766520746f20746865207a65726f206164647265737345524332303a207472616e7366657220616d6f756e7420657863656564732062616c616e636545524332303a207472616e7366657220616d6f756e74206578636565647320616c6c6f77616e636545524332303a206275726e2066726f6d20746865207a65726f206164647265737345524332303a207472616e736665722066726f6d20746865207a65726f206164647265737345524332303a20617070726f76652066726f6d20746865207a65726f206164647265737345524332303a2064656372656173656420616c6c6f77616e63652062656c6f77207a65726fa2646970667358221220aa584c61b92b11827ce9d92f01e72c7426d360e850536a31104886800f69ee6a64736f6c63430006090033",
  "devdoc": {
    "methods": {
      "allowance(address,address)": {
        "details": "See {IERC20-allowance}."
      },
      "approve(address,uint256)": {
        "details": "See {IERC20-approve}. Requirements: - `spender` cannot be the zero address."
      },
      "balanceOf(address)": {
        "details": "See {IERC20-balanceOf}."
      },
      "decimals()": {
        "details": "Returns the number of decimals used to get its user representation. For example, if `decimals` equals `2`, a balance of `505` tokens should be displayed to a user as `5,05` (`505 / 10 ** 2`). Tokens usually opt for a value of 18, imitating the relationship between Ether and Wei. This is the value {ERC20} uses, unless {_setupDecimals} is called. NOTE: This information is only used for _display_ purposes: it in no way affects any of the arithmetic of the contract, including {IERC20-balanceOf} and {IERC20-transfer}."
      },
      "decreaseAllowance(address,uint256)": {
        "details": "Atomically decreases the allowance granted to `spender` by the caller. This is an alternative to {approve} that can be used as a mitigation for problems described in {IERC20-approve}. Emits an {Approval} event indicating the updated allowance. Requirements: - `spender` cannot be the zero address. - `spender` must have allowance for the caller of at least `subtractedValue`."
      },
      "increaseAllowance(address,uint256)": {
        "details": "Atomically increases the allowance granted to `spender` by the caller. This is an alternative to {approve} that can be used as a mitigation for problems described in {IERC20-approve}. Emits an {Approval} event indicating the updated allowance. Requirements: - `spender` cannot be the zero address."
      },
      "name()": {
        "details": "Returns the name of the token."
      },
      "symbol()": {
        "details": "Returns the symbol of the token, usually a shorter version of the name."
      },
      "totalSupply()": {
        "details": "See {IERC20-totalSupply}."
      },
      "transfer(address,uint256)": {
        "details": "See {IERC20-transfer}. Requirements: - `recipient` cannot be the zero address. - the caller must have a balance of at least `amount`."
      },
      "transferFrom(address,address,uint256)": {
        "details": "See {IERC20-transferFrom}. Emits an {Approval} event indicating the updated allowance. This is not required by the EIP. See the note at the beginning of {ERC20}. Requirements: - `sender` and `recipient` cannot be the zero address. - `sender` must have a balance of at least `amount`. - the caller must have allowance for ``sender``'s tokens of at least `amount`."
      }
    }
  },
  "userdoc": {
    "methods": {}
  },
  "storageLayout": {
    "storage": [
      {
        "astId": 689,
        "contract": "contracts/NakamotOsERC20.sol:NakamotOsERC20",
        "label": "_balances",
        "offset": 0,
        "slot": "0",
        "type": "t_mapping(t_address,t_uint256)"
      },
      {
        "astId": 695,
        "contract": "contracts/NakamotOsERC20.sol:NakamotOsERC20",
        "label": "_allowances",
        "offset": 0,
        "slot": "1",
        "type": "t_mapping(t_address,t_mapping(t_address,t_uint256))"
      },
      {
        "astId": 697,
        "contract": "contracts/NakamotOsERC20.sol:NakamotOsERC20",
        "label": "_totalSupply",
        "offset": 0,
        "slot": "2",
        "type": "t_uint256"
      },
      {
        "astId": 699,
        "contract": "contracts/NakamotOsERC20.sol:NakamotOsERC20",
        "label": "_name",
        "offset": 0,
        "slot": "3",
        "type": "t_string_storage"
      },
      {
        "astId": 701,
        "contract": "contracts/NakamotOsERC20.sol:NakamotOsERC20",
        "label": "_symbol",
        "offset": 0,
        "slot": "4",
        "type": "t_string_storage"
      },
      {
        "astId": 703,
        "contract": "contracts/NakamotOsERC20.sol:NakamotOsERC20",
        "label": "_decimals",
        "offset": 0,
        "slot": "5",
        "type": "t_uint8"
      },
      {
        "astId": 4362,
        "contract": "contracts/NakamotOsERC20.sol:NakamotOsERC20",
        "label": "nftToken",
        "offset": 1,
        "slot": "5",
        "type": "t_contract(NakamotOsERC721)4581"
      },
      {
        "astId": 4365,
        "contract": "contracts/NakamotOsERC20.sol:NakamotOsERC20",
        "label": "MAX_NFT_SUPPLY",
        "offset": 0,
        "slot": "6",
        "type": "t_uint256"
      },
      {
        "astId": 4370,
        "contract": "contracts/NakamotOsERC20.sol:NakamotOsERC20",
        "label": "ONE",
        "offset": 0,
        "slot": "7",
        "type": "t_uint256"
      }
    ],
    "types": {
      "t_address": {
        "encoding": "inplace",
        "label": "address",
        "numberOfBytes": "20"
      },
      "t_contract(NakamotOsERC721)4581": {
        "encoding": "inplace",
        "label": "contract NakamotOsERC721",
        "numberOfBytes": "20"
      },
      "t_mapping(t_address,t_mapping(t_address,t_uint256))": {
        "encoding": "mapping",
        "key": "t_address",
        "label": "mapping(address => mapping(address => uint256))",
        "numberOfBytes": "32",
        "value": "t_mapping(t_address,t_uint256)"
      },
      "t_mapping(t_address,t_uint256)": {
        "encoding": "mapping",
        "key": "t_address",
        "label": "mapping(address => uint256)",
        "numberOfBytes": "32",
        "value": "t_uint256"
      },
      "t_string_storage": {
        "encoding": "bytes",
        "label": "string",
        "numberOfBytes": "32"
      },
      "t_uint256": {
        "encoding": "inplace",
        "label": "uint256",
        "numberOfBytes": "32"
      },
      "t_uint8": {
        "encoding": "inplace",
        "label": "uint8",
        "numberOfBytes": "1"
      }
    }
  }
}