{
  "address": "0xaCdBabd2C3e1Af6AC29afA604D04c10E90416cEC",
  "abi": [
    {
      "inputs": [
        {
          "internalType": "string",
          "name": "name_",
          "type": "string"
        },
        {
          "internalType": "string",
          "name": "symbol_",
          "type": "string"
        },
        {
          "internalType": "uint256",
          "name": "maxSupply",
          "type": "uint256"
        },
        {
          "internalType": "address",
          "name": "bagHolder",
          "type": "address"
        },
        {
          "internalType": "address",
          "name": "nftTokenAddress_",
          "type": "address"
        }
      ],
      "stateMutability": "nonpayable",
      "type": "constructor"
    },
    {
      "anonymous": false,
      "inputs": [
        {
          "indexed": true,
          "internalType": "address",
          "name": "owner",
          "type": "address"
        },
        {
          "indexed": true,
          "internalType": "address",
          "name": "spender",
          "type": "address"
        },
        {
          "indexed": false,
          "internalType": "uint256",
          "name": "value",
          "type": "uint256"
        }
      ],
      "name": "Approval",
      "type": "event"
    },
    {
      "anonymous": false,
      "inputs": [
        {
          "indexed": true,
          "internalType": "address",
          "name": "burner",
          "type": "address"
        },
        {
          "indexed": false,
          "internalType": "uint256",
          "name": "amount",
          "type": "uint256"
        }
      ],
      "name": "Burn",
      "type": "event"
    },
    {
      "anonymous": false,
      "inputs": [
        {
          "indexed": true,
          "internalType": "address",
          "name": "from",
          "type": "address"
        },
        {
          "indexed": true,
          "internalType": "address",
          "name": "to",
          "type": "address"
        },
        {
          "indexed": false,
          "internalType": "uint256",
          "name": "value",
          "type": "uint256"
        }
      ],
      "name": "Transfer",
      "type": "event"
    },
    {
      "inputs": [
        {
          "internalType": "address",
          "name": "owner",
          "type": "address"
        },
        {
          "internalType": "address",
          "name": "spender",
          "type": "address"
        }
      ],
      "name": "allowance",
      "outputs": [
        {
          "internalType": "uint256",
          "name": "",
          "type": "uint256"
        }
      ],
      "stateMutability": "view",
      "type": "function"
    },
    {
      "inputs": [
        {
          "internalType": "address",
          "name": "spender",
          "type": "address"
        },
        {
          "internalType": "uint256",
          "name": "amount",
          "type": "uint256"
        }
      ],
      "name": "approve",
      "outputs": [
        {
          "internalType": "bool",
          "name": "",
          "type": "bool"
        }
      ],
      "stateMutability": "nonpayable",
      "type": "function"
    },
    {
      "inputs": [
        {
          "internalType": "address",
          "name": "account",
          "type": "address"
        }
      ],
      "name": "balanceOf",
      "outputs": [
        {
          "internalType": "uint256",
          "name": "",
          "type": "uint256"
        }
      ],
      "stateMutability": "view",
      "type": "function"
    },
    {
      "inputs": [
        {
          "internalType": "uint256",
          "name": "amount",
          "type": "uint256"
        }
      ],
      "name": "burn",
      "outputs": [
        {
          "internalType": "bool",
          "name": "",
          "type": "bool"
        }
      ],
      "stateMutability": "nonpayable",
      "type": "function"
    },
    {
      "inputs": [
        {
          "internalType": "uint256",
          "name": "amount",
          "type": "uint256"
        },
        {
          "internalType": "address",
          "name": "minter",
          "type": "address"
        }
      ],
      "name": "claimNFT",
      "outputs": [
        {
          "internalType": "bool",
          "name": "",
          "type": "bool"
        }
      ],
      "stateMutability": "nonpayable",
      "type": "function"
    },
    {
      "inputs": [],
      "name": "decimals",
      "outputs": [
        {
          "internalType": "uint8",
          "name": "",
          "type": "uint8"
        }
      ],
      "stateMutability": "view",
      "type": "function"
    },
    {
      "inputs": [
        {
          "internalType": "address",
          "name": "spender",
          "type": "address"
        },
        {
          "internalType": "uint256",
          "name": "subtractedValue",
          "type": "uint256"
        }
      ],
      "name": "decreaseAllowance",
      "outputs": [
        {
          "internalType": "bool",
          "name": "",
          "type": "bool"
        }
      ],
      "stateMutability": "nonpayable",
      "type": "function"
    },
    {
      "inputs": [
        {
          "internalType": "address",
          "name": "spender",
          "type": "address"
        },
        {
          "internalType": "uint256",
          "name": "addedValue",
          "type": "uint256"
        }
      ],
      "name": "increaseAllowance",
      "outputs": [
        {
          "internalType": "bool",
          "name": "",
          "type": "bool"
        }
      ],
      "stateMutability": "nonpayable",
      "type": "function"
    },
    {
      "inputs": [],
      "name": "name",
      "outputs": [
        {
          "internalType": "string",
          "name": "",
          "type": "string"
        }
      ],
      "stateMutability": "view",
      "type": "function"
    },
    {
      "inputs": [
        {
          "internalType": "address",
          "name": "",
          "type": "address"
        }
      ],
      "name": "nftClaims",
      "outputs": [
        {
          "internalType": "uint256",
          "name": "",
          "type": "uint256"
        }
      ],
      "stateMutability": "view",
      "type": "function"
    },
    {
      "inputs": [],
      "name": "nftTokenAddress",
      "outputs": [
        {
          "internalType": "address",
          "name": "",
          "type": "address"
        }
      ],
      "stateMutability": "view",
      "type": "function"
    },
    {
      "inputs": [],
      "name": "symbol",
      "outputs": [
        {
          "internalType": "string",
          "name": "",
          "type": "string"
        }
      ],
      "stateMutability": "view",
      "type": "function"
    },
    {
      "inputs": [],
      "name": "totalSupply",
      "outputs": [
        {
          "internalType": "uint256",
          "name": "",
          "type": "uint256"
        }
      ],
      "stateMutability": "view",
      "type": "function"
    },
    {
      "inputs": [
        {
          "internalType": "address",
          "name": "recipient",
          "type": "address"
        },
        {
          "internalType": "uint256",
          "name": "amount",
          "type": "uint256"
        }
      ],
      "name": "transfer",
      "outputs": [
        {
          "internalType": "bool",
          "name": "",
          "type": "bool"
        }
      ],
      "stateMutability": "nonpayable",
      "type": "function"
    },
    {
      "inputs": [
        {
          "internalType": "address",
          "name": "sender",
          "type": "address"
        },
        {
          "internalType": "address",
          "name": "recipient",
          "type": "address"
        },
        {
          "internalType": "uint256",
          "name": "amount",
          "type": "uint256"
        }
      ],
      "name": "transferFrom",
      "outputs": [
        {
          "internalType": "bool",
          "name": "",
          "type": "bool"
        }
      ],
      "stateMutability": "nonpayable",
      "type": "function"
    }
  ],
  "transactionHash": "0x40ab06e02524063ca9a96f1eb89b84f9498abdc9bca7dc8cd9ae219c1f847072",
  "args": [
    "NakamotOs",
    "BKFT",
    "2100000000000000000000",
    "0x1C35E441b21E528Dd8385Fd41d1578bE18E247D3",
    "0xE586475eaF2576E24d0C9E3Fb753d1C218d9a72C"
  ],
  "solcInputHash": "9c2e4703685960cb5223450f93b2fdc1",
  "bytecode": "0x6080604052670de0b6b3a76400006007553480156200001d57600080fd5b5060405162001243380380620012438339810160408190526200004091620002f6565b8451859085906200005990600390602085019062000188565b5080516200006f90600490602084019062000188565b505050620000848284620000af60201b60201c565b600680546001600160a01b0319166001600160a01b0392909216919091179055506200044492505050565b6001600160a01b038216620000e15760405162461bcd60e51b8152600401620000d8906200038c565b60405180910390fd5b620000ef6000838362000183565b8060026000828254620001039190620003cc565b90915550506001600160a01b0382166000908152602081905260408120805483929062000132908490620003cc565b90915550506040516001600160a01b038316906000907fddf252ad1be2c89b69c2b068fc378daa952ba7f163c4a11628f55a4df523b3ef9062000177908590620003c3565b60405180910390a35050565b505050565b8280546200019690620003f1565b90600052602060002090601f016020900481019282620001ba576000855562000205565b82601f10620001d557805160ff191683800117855562000205565b8280016001018555821562000205579182015b8281111562000205578251825591602001919060010190620001e8565b506200021392915062000217565b5090565b5b8082111562000213576000815560010162000218565b80516001600160a01b03811681146200024657600080fd5b919050565b600082601f8301126200025c578081fd5b81516001600160401b03808211156200027957620002796200042e565b6040516020601f8401601f1916820181018381118382101715620002a157620002a16200042e565b6040528382528584018101871015620002b8578485fd5b8492505b83831015620002db5785830181015182840182015291820191620002bc565b83831115620002ec57848185840101525b5095945050505050565b600080600080600060a086880312156200030e578081fd5b85516001600160401b038082111562000325578283fd5b6200033389838a016200024b565b9650602088015191508082111562000349578283fd5b5062000358888289016200024b565b9450506040860151925062000370606087016200022e565b915062000380608087016200022e565b90509295509295909350565b6020808252601f908201527f45524332303a206d696e7420746f20746865207a65726f206164647265737300604082015260600190565b90815260200190565b60008219821115620003ec57634e487b7160e01b81526011600452602481fd5b500190565b6002810460018216806200040657607f821691505b602082108114156200042857634e487b7160e01b600052602260045260246000fd5b50919050565b634e487b7160e01b600052604160045260246000fd5b610def80620004546000396000f3fe608060405234801561001057600080fd5b50600436106100f55760003560e01c8063395093511161009757806395d89b411161006657806395d89b41146101e9578063a457c2d7146101f1578063a9059cbb14610204578063dd62ed3e14610217576100f5565b8063395093511461019d57806342966c68146101b057806362432b58146101c357806370a08231146101d6576100f5565b8063095ea7b3116100d3578063095ea7b31461014d57806318160ddd1461016d57806323b872dd14610175578063313ce56714610188576100f5565b806303ee582a146100fa578063059cd0cd1461012357806306fdde0314610138575b600080fd5b61010d61010836600461090c565b61022a565b60405161011a9190610d03565b60405180910390f35b61012b61023c565b60405161011a91906109fd565b61014061024b565b60405161011a9190610a1c565b61016061015b36600461099a565b6102dd565b60405161011a9190610a11565b61010d6102fa565b61016061018336600461095f565b610300565b6101906103a0565b60405161011a9190610d0c565b6101606101ab36600461099a565b6103a5565b6101606101be3660046109c3565b6103f4565b6101606101d13660046109db565b61049a565b61010d6101e436600461090c565b610546565b610140610561565b6101606101ff36600461099a565b610570565b61016061021236600461099a565b6105eb565b61010d61022536600461092d565b6105ff565b60056020526000908152604090205481565b6006546001600160a01b031681565b60606003805461025a90610d68565b80601f016020809104026020016040519081016040528092919081815260200182805461028690610d68565b80156102d35780601f106102a8576101008083540402835291602001916102d3565b820191906000526020600020905b8154815290600101906020018083116102b657829003601f168201915b5050505050905090565b60006102f16102ea61062a565b848461062e565b50600192915050565b60025490565b600061030d8484846106e2565b6001600160a01b03841660009081526001602052604081208161032e61062a565b6001600160a01b03166001600160a01b031681526020019081526020016000205490508281101561037a5760405162461bcd60e51b815260040161037190610bac565b60405180910390fd5b6103958561038661062a565b6103908685610d51565b61062e565b506001949350505050565b601290565b60006102f16103b261062a565b8484600160006103c061062a565b6001600160a01b03908116825260208083019390935260409182016000908120918b16815292529020546103909190610d1a565b600061040761040161062a565b8361080a565b816005600061041461062a565b6001600160a01b03166001600160a01b0316815260200190815260200160002060008282546104439190610d1a565b90915550610451905061062a565b6001600160a01b03167fcc16f5dbb4873280815c1ee09dbd06736cffcc184412cf7a71a0fdb75d397ca5836040516104899190610d03565b60405180910390a25060015b919050565b6006546000906001600160a01b03166104b161062a565b6001600160a01b0316146104d75760405162461bcd60e51b815260040161037190610af4565b6000600754846104e79190610d32565b6001600160a01b03841660009081526005602052604090205490915081111561050f57600080fd5b6001600160a01b03831660009081526005602052604081208054839290610537908490610d51565b90915550600195945050505050565b6001600160a01b031660009081526020819052604090205490565b60606004805461025a90610d68565b6000806001600061057f61062a565b6001600160a01b03908116825260208083019390935260409182016000908120918816815292529020549050828110156105cb5760405162461bcd60e51b815260040161037190610cbe565b6105e16105d661062a565b856103908685610d51565b5060019392505050565b60006102f16105f861062a565b84846106e2565b6001600160a01b03918216600090815260016020908152604080832093909416825291909152205490565b3390565b6001600160a01b0383166106545760405162461bcd60e51b815260040161037190610c7a565b6001600160a01b03821661067a5760405162461bcd60e51b815260040161037190610b24565b6001600160a01b0380841660008181526001602090815260408083209487168084529490915290819020849055517f8c5be1e5ebec7d5bd14f71427d1e84f3dd0314c0f7b2291e5b200ac8c7c3b925906106d5908590610d03565b60405180910390a3505050565b6001600160a01b0383166107085760405162461bcd60e51b815260040161037190610c35565b6001600160a01b03821661072e5760405162461bcd60e51b815260040161037190610a6f565b6107398383836108f0565b6001600160a01b038316600090815260208190526040902054818110156107725760405162461bcd60e51b815260040161037190610b66565b61077c8282610d51565b6001600160a01b0380861660009081526020819052604080822093909355908516815290812080548492906107b2908490610d1a565b92505081905550826001600160a01b0316846001600160a01b03167fddf252ad1be2c89b69c2b068fc378daa952ba7f163c4a11628f55a4df523b3ef846040516107fc9190610d03565b60405180910390a350505050565b6001600160a01b0382166108305760405162461bcd60e51b815260040161037190610bf4565b61083c826000836108f0565b6001600160a01b038216600090815260208190526040902054818110156108755760405162461bcd60e51b815260040161037190610ab2565b61087f8282610d51565b6001600160a01b038416600090815260208190526040812091909155600280548492906108ad908490610d51565b90915550506040516000906001600160a01b038516907fddf252ad1be2c89b69c2b068fc378daa952ba7f163c4a11628f55a4df523b3ef906106d5908690610d03565b505050565b80356001600160a01b038116811461049557600080fd5b60006020828403121561091d578081fd5b610926826108f5565b9392505050565b6000806040838503121561093f578081fd5b610948836108f5565b9150610956602084016108f5565b90509250929050565b600080600060608486031215610973578081fd5b61097c846108f5565b925061098a602085016108f5565b9150604084013590509250925092565b600080604083850312156109ac578182fd5b6109b5836108f5565b946020939093013593505050565b6000602082840312156109d4578081fd5b5035919050565b600080604083850312156109ed578182fd5b82359150610956602084016108f5565b6001600160a01b0391909116815260200190565b901515815260200190565b6000602080835283518082850152825b81811015610a4857858101830151858201604001528201610a2c565b81811115610a595783604083870101525b50601f01601f1916929092016040019392505050565b60208082526023908201527f45524332303a207472616e7366657220746f20746865207a65726f206164647260408201526265737360e81b606082015260800190565b60208082526022908201527f45524332303a206275726e20616d6f756e7420657863656564732062616c616e604082015261636560f01b606082015260800190565b60208082526016908201527510d85b1b195c881b5d5cdd081899481d1a194813919560521b604082015260600190565b60208082526022908201527f45524332303a20617070726f766520746f20746865207a65726f206164647265604082015261737360f01b606082015260800190565b60208082526026908201527f45524332303a207472616e7366657220616d6f756e7420657863656564732062604082015265616c616e636560d01b606082015260800190565b60208082526028908201527f45524332303a207472616e7366657220616d6f756e74206578636565647320616040820152676c6c6f77616e636560c01b606082015260800190565b60208082526021908201527f45524332303a206275726e2066726f6d20746865207a65726f206164647265736040820152607360f81b606082015260800190565b60208082526025908201527f45524332303a207472616e736665722066726f6d20746865207a65726f206164604082015264647265737360d81b606082015260800190565b60208082526024908201527f45524332303a20617070726f76652066726f6d20746865207a65726f206164646040820152637265737360e01b606082015260800190565b60208082526025908201527f45524332303a2064656372656173656420616c6c6f77616e63652062656c6f77604082015264207a65726f60d81b606082015260800190565b90815260200190565b60ff91909116815260200190565b60008219821115610d2d57610d2d610da3565b500190565b6000816000190483118215151615610d4c57610d4c610da3565b500290565b600082821015610d6357610d63610da3565b500390565b600281046001821680610d7c57607f821691505b60208210811415610d9d57634e487b7160e01b600052602260045260246000fd5b50919050565b634e487b7160e01b600052601160045260246000fdfea2646970667358221220490c5a12ef8c7047b1ab2d68affb56817f2c0de7fc0c194cc290093f6cd7ed9364736f6c63430008000033",
  "devdoc": {
    "kind": "dev",
    "methods": {
      "allowance(address,address)": {
        "details": "See {IERC20-allowance}."
      },
      "approve(address,uint256)": {
        "details": "See {IERC20-approve}. Requirements: - `spender` cannot be the zero address."
      },
      "balanceOf(address)": {
        "details": "See {IERC20-balanceOf}."
      },
      "decimals()": {
        "details": "Returns the number of decimals used to get its user representation. For example, if `decimals` equals `2`, a balance of `505` tokens should be displayed to a user as `5,05` (`505 / 10 ** 2`). Tokens usually opt for a value of 18, imitating the relationship between Ether and Wei. This is the value {ERC20} uses, unless this function is overloaded; NOTE: This information is only used for _display_ purposes: it in no way affects any of the arithmetic of the contract, including {IERC20-balanceOf} and {IERC20-transfer}."
      },
      "decreaseAllowance(address,uint256)": {
        "details": "Atomically decreases the allowance granted to `spender` by the caller. This is an alternative to {approve} that can be used as a mitigation for problems described in {IERC20-approve}. Emits an {Approval} event indicating the updated allowance. Requirements: - `spender` cannot be the zero address. - `spender` must have allowance for the caller of at least `subtractedValue`."
      },
      "increaseAllowance(address,uint256)": {
        "details": "Atomically increases the allowance granted to `spender` by the caller. This is an alternative to {approve} that can be used as a mitigation for problems described in {IERC20-approve}. Emits an {Approval} event indicating the updated allowance. Requirements: - `spender` cannot be the zero address."
      },
      "name()": {
        "details": "Returns the name of the token."
      },
      "symbol()": {
        "details": "Returns the symbol of the token, usually a shorter version of the name."
      },
      "totalSupply()": {
        "details": "See {IERC20-totalSupply}."
      },
      "transfer(address,uint256)": {
        "details": "See {IERC20-transfer}. Requirements: - `recipient` cannot be the zero address. - the caller must have a balance of at least `amount`."
      },
      "transferFrom(address,address,uint256)": {
        "details": "See {IERC20-transferFrom}. Emits an {Approval} event indicating the updated allowance. This is not required by the EIP. See the note at the beginning of {ERC20}. Requirements: - `sender` and `recipient` cannot be the zero address. - `sender` must have a balance of at least `amount`. - the caller must have allowance for ``sender``'s tokens of at least `amount`."
      }
    },
    "version": 1
  },
  "userdoc": {
    "kind": "user",
    "methods": {},
    "version": 1
  },
  "storageLayout": {
    "storage": [
      {
        "astId": 122,
        "contract": "contracts/NakamotOsERC20.sol:NakamotOsERC20",
        "label": "_balances",
        "offset": 0,
        "slot": "0",
        "type": "t_mapping(t_address,t_uint256)"
      },
      {
        "astId": 128,
        "contract": "contracts/NakamotOsERC20.sol:NakamotOsERC20",
        "label": "_allowances",
        "offset": 0,
        "slot": "1",
        "type": "t_mapping(t_address,t_mapping(t_address,t_uint256))"
      },
      {
        "astId": 130,
        "contract": "contracts/NakamotOsERC20.sol:NakamotOsERC20",
        "label": "_totalSupply",
        "offset": 0,
        "slot": "2",
        "type": "t_uint256"
      },
      {
        "astId": 132,
        "contract": "contracts/NakamotOsERC20.sol:NakamotOsERC20",
        "label": "_name",
        "offset": 0,
        "slot": "3",
        "type": "t_string_storage"
      },
      {
        "astId": 134,
        "contract": "contracts/NakamotOsERC20.sol:NakamotOsERC20",
        "label": "_symbol",
        "offset": 0,
        "slot": "4",
        "type": "t_string_storage"
      },
      {
        "astId": 2612,
        "contract": "contracts/NakamotOsERC20.sol:NakamotOsERC20",
        "label": "nftClaims",
        "offset": 0,
        "slot": "5",
        "type": "t_mapping(t_address,t_uint256)"
      },
      {
        "astId": 2614,
        "contract": "contracts/NakamotOsERC20.sol:NakamotOsERC20",
        "label": "nftTokenAddress",
        "offset": 0,
        "slot": "6",
        "type": "t_address"
      },
      {
        "astId": 2619,
        "contract": "contracts/NakamotOsERC20.sol:NakamotOsERC20",
        "label": "DECIMAL_MULTIPLIER",
        "offset": 0,
        "slot": "7",
        "type": "t_uint256"
      }
    ],
    "types": {
      "t_address": {
        "encoding": "inplace",
        "label": "address",
        "numberOfBytes": "20"
      },
      "t_mapping(t_address,t_mapping(t_address,t_uint256))": {
        "encoding": "mapping",
        "key": "t_address",
        "label": "mapping(address => mapping(address => uint256))",
        "numberOfBytes": "32",
        "value": "t_mapping(t_address,t_uint256)"
      },
      "t_mapping(t_address,t_uint256)": {
        "encoding": "mapping",
        "key": "t_address",
        "label": "mapping(address => uint256)",
        "numberOfBytes": "32",
        "value": "t_uint256"
      },
      "t_string_storage": {
        "encoding": "bytes",
        "label": "string",
        "numberOfBytes": "32"
      },
      "t_uint256": {
        "encoding": "inplace",
        "label": "uint256",
        "numberOfBytes": "32"
      }
    }
  }
}