{
  "address": "0xE586475eaF2576E24d0C9E3Fb753d1C218d9a72C",
  "abi": [
    {
      "inputs": [
        {
          "internalType": "string",
          "name": "name",
          "type": "string"
        },
        {
          "internalType": "string",
          "name": "symbol",
          "type": "string"
        },
        {
          "internalType": "string",
          "name": "tokenURI_",
          "type": "string"
        }
      ],
      "stateMutability": "nonpayable",
      "type": "constructor"
    },
    {
      "anonymous": false,
      "inputs": [
        {
          "indexed": true,
          "internalType": "address",
          "name": "owner",
          "type": "address"
        },
        {
          "indexed": true,
          "internalType": "address",
          "name": "approved",
          "type": "address"
        },
        {
          "indexed": true,
          "internalType": "uint256",
          "name": "tokenId",
          "type": "uint256"
        }
      ],
      "name": "Approval",
      "type": "event"
    },
    {
      "anonymous": false,
      "inputs": [
        {
          "indexed": true,
          "internalType": "address",
          "name": "owner",
          "type": "address"
        },
        {
          "indexed": true,
          "internalType": "address",
          "name": "operator",
          "type": "address"
        },
        {
          "indexed": false,
          "internalType": "bool",
          "name": "approved",
          "type": "bool"
        }
      ],
      "name": "ApprovalForAll",
      "type": "event"
    },
    {
      "anonymous": false,
      "inputs": [
        {
          "indexed": true,
          "internalType": "address",
          "name": "previousOwner",
          "type": "address"
        },
        {
          "indexed": true,
          "internalType": "address",
          "name": "newOwner",
          "type": "address"
        }
      ],
      "name": "OwnershipTransferred",
      "type": "event"
    },
    {
      "anonymous": false,
      "inputs": [
        {
          "indexed": true,
          "internalType": "address",
          "name": "from",
          "type": "address"
        },
        {
          "indexed": true,
          "internalType": "address",
          "name": "to",
          "type": "address"
        },
        {
          "indexed": true,
          "internalType": "uint256",
          "name": "tokenId",
          "type": "uint256"
        }
      ],
      "name": "Transfer",
      "type": "event"
    },
    {
      "inputs": [],
      "name": "_tokenURI",
      "outputs": [
        {
          "internalType": "string",
          "name": "",
          "type": "string"
        }
      ],
      "stateMutability": "view",
      "type": "function"
    },
    {
      "inputs": [
        {
          "internalType": "address",
          "name": "to",
          "type": "address"
        },
        {
          "internalType": "uint256",
          "name": "tokenId",
          "type": "uint256"
        }
      ],
      "name": "approve",
      "outputs": [],
      "stateMutability": "nonpayable",
      "type": "function"
    },
    {
      "inputs": [
        {
          "internalType": "address",
          "name": "owner",
          "type": "address"
        }
      ],
      "name": "balanceOf",
      "outputs": [
        {
          "internalType": "uint256",
          "name": "",
          "type": "uint256"
        }
      ],
      "stateMutability": "view",
      "type": "function"
    },
    {
      "inputs": [
        {
          "internalType": "uint256",
          "name": "tokenId",
          "type": "uint256"
        }
      ],
      "name": "getApproved",
      "outputs": [
        {
          "internalType": "address",
          "name": "",
          "type": "address"
        }
      ],
      "stateMutability": "view",
      "type": "function"
    },
    {
      "inputs": [
        {
          "internalType": "address",
          "name": "owner",
          "type": "address"
        },
        {
          "internalType": "address",
          "name": "operator",
          "type": "address"
        }
      ],
      "name": "isApprovedForAll",
      "outputs": [
        {
          "internalType": "bool",
          "name": "",
          "type": "bool"
        }
      ],
      "stateMutability": "view",
      "type": "function"
    },
    {
      "inputs": [
        {
          "internalType": "uint256",
          "name": "amount",
          "type": "uint256"
        }
      ],
      "name": "mint",
      "outputs": [],
      "stateMutability": "nonpayable",
      "type": "function"
    },
    {
      "inputs": [],
      "name": "nakamotOsErc20",
      "outputs": [
        {
          "internalType": "contract NakamotOsERC20",
          "name": "",
          "type": "address"
        }
      ],
      "stateMutability": "view",
      "type": "function"
    },
    {
      "inputs": [],
      "name": "name",
      "outputs": [
        {
          "internalType": "string",
          "name": "",
          "type": "string"
        }
      ],
      "stateMutability": "view",
      "type": "function"
    },
    {
      "inputs": [],
      "name": "owner",
      "outputs": [
        {
          "internalType": "address",
          "name": "",
          "type": "address"
        }
      ],
      "stateMutability": "view",
      "type": "function"
    },
    {
      "inputs": [
        {
          "internalType": "uint256",
          "name": "tokenId",
          "type": "uint256"
        }
      ],
      "name": "ownerOf",
      "outputs": [
        {
          "internalType": "address",
          "name": "",
          "type": "address"
        }
      ],
      "stateMutability": "view",
      "type": "function"
    },
    {
      "inputs": [],
      "name": "renounceOwnership",
      "outputs": [],
      "stateMutability": "nonpayable",
      "type": "function"
    },
    {
      "inputs": [
        {
          "internalType": "address",
          "name": "from",
          "type": "address"
        },
        {
          "internalType": "address",
          "name": "to",
          "type": "address"
        },
        {
          "internalType": "uint256",
          "name": "tokenId",
          "type": "uint256"
        }
      ],
      "name": "safeTransferFrom",
      "outputs": [],
      "stateMutability": "nonpayable",
      "type": "function"
    },
    {
      "inputs": [
        {
          "internalType": "address",
          "name": "from",
          "type": "address"
        },
        {
          "internalType": "address",
          "name": "to",
          "type": "address"
        },
        {
          "internalType": "uint256",
          "name": "tokenId",
          "type": "uint256"
        },
        {
          "internalType": "bytes",
          "name": "_data",
          "type": "bytes"
        }
      ],
      "name": "safeTransferFrom",
      "outputs": [],
      "stateMutability": "nonpayable",
      "type": "function"
    },
    {
      "inputs": [
        {
          "internalType": "address",
          "name": "operator",
          "type": "address"
        },
        {
          "internalType": "bool",
          "name": "approved",
          "type": "bool"
        }
      ],
      "name": "setApprovalForAll",
      "outputs": [],
      "stateMutability": "nonpayable",
      "type": "function"
    },
    {
      "inputs": [
        {
          "internalType": "address",
          "name": "erc20Address",
          "type": "address"
        }
      ],
      "name": "setERC20Address",
      "outputs": [],
      "stateMutability": "nonpayable",
      "type": "function"
    },
    {
      "inputs": [
        {
          "internalType": "bytes4",
          "name": "interfaceId",
          "type": "bytes4"
        }
      ],
      "name": "supportsInterface",
      "outputs": [
        {
          "internalType": "bool",
          "name": "",
          "type": "bool"
        }
      ],
      "stateMutability": "view",
      "type": "function"
    },
    {
      "inputs": [],
      "name": "symbol",
      "outputs": [
        {
          "internalType": "string",
          "name": "",
          "type": "string"
        }
      ],
      "stateMutability": "view",
      "type": "function"
    },
    {
      "inputs": [
        {
          "internalType": "uint256",
          "name": "index",
          "type": "uint256"
        }
      ],
      "name": "tokenByIndex",
      "outputs": [
        {
          "internalType": "uint256",
          "name": "",
          "type": "uint256"
        }
      ],
      "stateMutability": "view",
      "type": "function"
    },
    {
      "inputs": [
        {
          "internalType": "address",
          "name": "owner",
          "type": "address"
        },
        {
          "internalType": "uint256",
          "name": "index",
          "type": "uint256"
        }
      ],
      "name": "tokenOfOwnerByIndex",
      "outputs": [
        {
          "internalType": "uint256",
          "name": "",
          "type": "uint256"
        }
      ],
      "stateMutability": "view",
      "type": "function"
    },
    {
      "inputs": [
        {
          "internalType": "uint256",
          "name": "",
          "type": "uint256"
        }
      ],
      "name": "tokenURI",
      "outputs": [
        {
          "internalType": "string",
          "name": "",
          "type": "string"
        }
      ],
      "stateMutability": "view",
      "type": "function"
    },
    {
      "inputs": [],
      "name": "totalSupply",
      "outputs": [
        {
          "internalType": "uint256",
          "name": "",
          "type": "uint256"
        }
      ],
      "stateMutability": "view",
      "type": "function"
    },
    {
      "inputs": [
        {
          "internalType": "address",
          "name": "from",
          "type": "address"
        },
        {
          "internalType": "address",
          "name": "to",
          "type": "address"
        },
        {
          "internalType": "uint256",
          "name": "tokenId",
          "type": "uint256"
        }
      ],
      "name": "transferFrom",
      "outputs": [],
      "stateMutability": "nonpayable",
      "type": "function"
    },
    {
      "inputs": [
        {
          "internalType": "address",
          "name": "newOwner",
          "type": "address"
        }
      ],
      "name": "transferOwnership",
      "outputs": [],
      "stateMutability": "nonpayable",
      "type": "function"
    }
  ],
  "transactionHash": "0x655760f3d59b54446612bda1bc798600b4a8ab42b3c54a5fc1c4804144b4c977",
  "args": [
    "NakamotOs",
    "BKFT",
    "https://arweave.net/blahblahblah"
  ],
  "solcInputHash": "9c2e4703685960cb5223450f93b2fdc1",
  "bytecode": "0x60806040523480156200001157600080fd5b5060405162001efb38038062001efb83398101604081905262000034916200023a565b8251839083906200004d906000906020850190620000e9565b50805162000063906001906020840190620000e9565b505050600062000078620000e560201b60201c565b600a80546001600160a01b0319166001600160a01b038316908117909155604051919250906000907f8be0079c531659141344cd1fd0a4f28419497f9722a3daafe3b4186f6b6457e0908290a3508051620000db90600c906020840190620000e9565b505050506200031a565b3390565b828054620000f790620002c7565b90600052602060002090601f0160209004810192826200011b576000855562000166565b82601f106200013657805160ff191683800117855562000166565b8280016001018555821562000166579182015b828111156200016657825182559160200191906001019062000149565b506200017492915062000178565b5090565b5b8082111562000174576000815560010162000179565b600082601f830112620001a0578081fd5b81516001600160401b0380821115620001bd57620001bd62000304565b6040516020601f8401601f1916820181018381118382101715620001e557620001e562000304565b6040528382528584018101871015620001fc578485fd5b8492505b838310156200021f578583018101518284018201529182019162000200565b838311156200023057848185840101525b5095945050505050565b6000806000606084860312156200024f578283fd5b83516001600160401b038082111562000266578485fd5b62000274878388016200018f565b945060208601519150808211156200028a578384fd5b62000298878388016200018f565b93506040860151915080821115620002ae578283fd5b50620002bd868287016200018f565b9150509250925092565b600281046001821680620002dc57607f821691505b60208210811415620002fe57634e487b7160e01b600052602260045260246000fd5b50919050565b634e487b7160e01b600052604160045260246000fd5b611bd1806200032a6000396000f3fe608060405234801561001057600080fd5b506004361061014d5760003560e01c806370a08231116100c3578063b4ce37d21161007c578063b4ce37d21461029d578063b88d4fde146102a5578063c87b56dd146102b8578063ca8f1a14146102cb578063e985e9c5146102d3578063f2fde38b146102e65761014d565b806370a082311461024c578063715018a61461025f5780638da5cb5b1461026757806395d89b411461026f578063a0712d6814610277578063a22cb4651461028a5761014d565b806323b872dd1161011557806323b872dd146101da5780632f745c59146101ed57806341bec0d21461020057806342842e0e146102135780634f6ccce7146102265780636352211e146102395761014d565b806301ffc9a71461015257806306fdde031461017b578063081812fc14610190578063095ea7b3146101b057806318160ddd146101c5575b600080fd5b6101656101603660046114bb565b6102f9565b60405161017291906115a7565b60405180910390f35b610183610326565b60405161017291906115b2565b6101a361019e3660046114f3565b6103b8565b6040516101729190611556565b6101c36101be366004611476565b610404565b005b6101cd61049c565b6040516101729190611aa3565b6101c36101e8366004611339565b6104a2565b6101cd6101fb366004611476565b6104da565b6101c361020e3660046112e6565b61052c565b6101c3610221366004611339565b61058d565b6101cd6102343660046114f3565b6105a8565b6101a36102473660046114f3565b610603565b6101cd61025a3660046112e6565b610638565b6101c361067c565b6101a3610705565b610183610714565b6101c36102853660046114f3565b610723565b6101c3610298366004611440565b610801565b6101836108cf565b6101c36102b3366004611374565b61095d565b6101836102c63660046114f3565b61099c565b6101a3610a30565b6101656102e1366004611307565b610a3f565b6101c36102f43660046112e6565b610a6d565b60006001600160e01b0319821663780e9d6360e01b148061031e575061031e82610b2e565b90505b919050565b60606000805461033590611af2565b80601f016020809104026020016040519081016040528092919081815260200182805461036190611af2565b80156103ae5780601f10610383576101008083540402835291602001916103ae565b820191906000526020600020905b81548152906001019060200180831161039157829003601f168201915b5050505050905090565b60006103c382610b6e565b6103e85760405162461bcd60e51b81526004016103df906118cb565b60405180910390fd5b506000908152600460205260409020546001600160a01b031690565b600061040f82610603565b9050806001600160a01b0316836001600160a01b031614156104435760405162461bcd60e51b81526004016103df90611995565b806001600160a01b0316610455610b8b565b6001600160a01b031614806104715750610471816102e1610b8b565b61048d5760405162461bcd60e51b81526004016103df906117a6565b6104978383610b8f565b505050565b60085490565b6104b36104ad610b8b565b82610bfd565b6104cf5760405162461bcd60e51b81526004016103df906119d6565b610497838383610c82565b60006104e583610638565b82106105035760405162461bcd60e51b81526004016103df906115c5565b506001600160a01b03919091166000908152600660209081526040808320938352929052205490565b610534610b8b565b6001600160a01b0316610545610705565b6001600160a01b03161461056b5760405162461bcd60e51b81526004016103df90611917565b600b80546001600160a01b0319166001600160a01b0392909216919091179055565b6104978383836040518060200160405280600081525061095d565b60006105b261049c565b82106105d05760405162461bcd60e51b81526004016103df90611a27565b600882815481106105f157634e487b7160e01b600052603260045260246000fd5b90600052602060002001549050919050565b6000818152600260205260408120546001600160a01b03168061031e5760405162461bcd60e51b81526004016103df9061184d565b60006001600160a01b0382166106605760405162461bcd60e51b81526004016103df90611803565b506001600160a01b031660009081526003602052604090205490565b610684610b8b565b6001600160a01b0316610695610705565b6001600160a01b0316146106bb5760405162461bcd60e51b81526004016103df90611917565b600a546040516000916001600160a01b0316907f8be0079c531659141344cd1fd0a4f28419497f9722a3daafe3b4186f6b6457e0908390a3600a80546001600160a01b0319169055565b600a546001600160a01b031690565b60606001805461033590611af2565b600b546001600160a01b03166362432b588261073d610b8b565b6040518363ffffffff1660e01b815260040161075a929190611aac565b602060405180830381600087803b15801561077457600080fd5b505af1158015610788573d6000803e3d6000fd5b505050506040513d601f19601f820116820180604052508101906107ac919061149f565b6107c85760405162461bcd60e51b81526004016103df90611a73565b60005b818110156107fd576107eb6107de610b8b565b6107e661049c565b610daf565b806107f581611b2d565b9150506107cb565b5050565b610809610b8b565b6001600160a01b0316826001600160a01b0316141561083a5760405162461bcd60e51b81526004016103df90611723565b8060056000610847610b8b565b6001600160a01b03908116825260208083019390935260409182016000908120918716808252919093529120805460ff19169215159290921790915561088b610b8b565b6001600160a01b03167f17307eab39ab6107e8899845ad3d59bd9653f200f220920489ca2b5937696c31836040516108c391906115a7565b60405180910390a35050565b600c80546108dc90611af2565b80601f016020809104026020016040519081016040528092919081815260200182805461090890611af2565b80156109555780601f1061092a57610100808354040283529160200191610955565b820191906000526020600020905b81548152906001019060200180831161093857829003601f168201915b505050505081565b61096e610968610b8b565b83610bfd565b61098a5760405162461bcd60e51b81526004016103df906119d6565b61099684848484610dc9565b50505050565b6060600c80546109ab90611af2565b80601f01602080910402602001604051908101604052809291908181526020018280546109d790611af2565b8015610a245780601f106109f957610100808354040283529160200191610a24565b820191906000526020600020905b815481529060010190602001808311610a0757829003601f168201915b50505050509050919050565b600b546001600160a01b031681565b6001600160a01b03918216600090815260056020908152604080832093909416825291909152205460ff1690565b610a75610b8b565b6001600160a01b0316610a86610705565b6001600160a01b031614610aac5760405162461bcd60e51b81526004016103df90611917565b6001600160a01b038116610ad25760405162461bcd60e51b81526004016103df90611662565b600a546040516001600160a01b038084169216907f8be0079c531659141344cd1fd0a4f28419497f9722a3daafe3b4186f6b6457e090600090a3600a80546001600160a01b0319166001600160a01b0392909216919091179055565b60006001600160e01b031982166380ac58cd60e01b1480610b5f57506001600160e01b03198216635b5e139f60e01b145b8061031e575061031e82610dfc565b6000908152600260205260409020546001600160a01b0316151590565b3390565b600081815260046020526040902080546001600160a01b0319166001600160a01b0384169081179091558190610bc482610603565b6001600160a01b03167f8c5be1e5ebec7d5bd14f71427d1e84f3dd0314c0f7b2291e5b200ac8c7c3b92560405160405180910390a45050565b6000610c0882610b6e565b610c245760405162461bcd60e51b81526004016103df9061175a565b6000610c2f83610603565b9050806001600160a01b0316846001600160a01b03161480610c6a5750836001600160a01b0316610c5f846103b8565b6001600160a01b0316145b80610c7a5750610c7a8185610a3f565b949350505050565b826001600160a01b0316610c9582610603565b6001600160a01b031614610cbb5760405162461bcd60e51b81526004016103df9061194c565b6001600160a01b038216610ce15760405162461bcd60e51b81526004016103df906116df565b610cec838383610e15565b610cf7600082610b8f565b6001600160a01b0383166000908152600360205260408120805460019290610d20908490611adb565b90915550506001600160a01b0382166000908152600360205260408120805460019290610d4e908490611ac3565b909155505060008181526002602052604080822080546001600160a01b0319166001600160a01b0386811691821790925591518493918716917fddf252ad1be2c89b69c2b068fc378daa952ba7f163c4a11628f55a4df523b3ef91a4505050565b6107fd828260405180602001604052806000815250610e9e565b610dd4848484610c82565b610de084848484610ed1565b6109965760405162461bcd60e51b81526004016103df90611610565b6001600160e01b031981166301ffc9a760e01b14919050565b610e20838383610497565b6001600160a01b038316610e3c57610e3781610fec565b610e5f565b816001600160a01b0316836001600160a01b031614610e5f57610e5f8382611030565b6001600160a01b038216610e7b57610e76816110cd565b610497565b826001600160a01b0316826001600160a01b0316146104975761049782826111a6565b610ea883836111ea565b610eb56000848484610ed1565b6104975760405162461bcd60e51b81526004016103df90611610565b6000610ee5846001600160a01b03166112c9565b15610fe157836001600160a01b031663150b7a02610f01610b8b565b8786866040518563ffffffff1660e01b8152600401610f23949392919061156a565b602060405180830381600087803b158015610f3d57600080fd5b505af1925050508015610f6d575060408051601f3d908101601f19168201909252610f6a918101906114d7565b60015b610fc7573d808015610f9b576040519150601f19603f3d011682016040523d82523d6000602084013e610fa0565b606091505b508051610fbf5760405162461bcd60e51b81526004016103df90611610565b805181602001fd5b6001600160e01b031916630a85bd0160e11b149050610c7a565b506001949350505050565b600880546000838152600960205260408120829055600182018355919091527ff3f7a9fe364faab93b216da50a3214154f22a0a2b415b23a84c8169e8b636ee30155565b6000600161103d84610638565b6110479190611adb565b60008381526007602052604090205490915080821461109a576001600160a01b03841660009081526006602090815260408083208584528252808320548484528184208190558352600790915290208190555b5060009182526007602090815260408084208490556001600160a01b039094168352600681528383209183525290812055565b6008546000906110df90600190611adb565b6000838152600960205260408120546008805493945090928490811061111557634e487b7160e01b600052603260045260246000fd5b90600052602060002001549050806008838154811061114457634e487b7160e01b600052603260045260246000fd5b600091825260208083209091019290925582815260099091526040808220849055858252812055600880548061118a57634e487b7160e01b600052603160045260246000fd5b6001900381819060005260206000200160009055905550505050565b60006111b183610638565b6001600160a01b039093166000908152600660209081526040808320868452825280832085905593825260079052919091209190915550565b6001600160a01b0382166112105760405162461bcd60e51b81526004016103df90611896565b61121981610b6e565b156112365760405162461bcd60e51b81526004016103df906116a8565b61124260008383610e15565b6001600160a01b038216600090815260036020526040812080546001929061126b908490611ac3565b909155505060008181526002602052604080822080546001600160a01b0319166001600160a01b03861690811790915590518392907fddf252ad1be2c89b69c2b068fc378daa952ba7f163c4a11628f55a4df523b3ef908290a45050565b3b151590565b80356001600160a01b038116811461032157600080fd5b6000602082840312156112f7578081fd5b611300826112cf565b9392505050565b60008060408385031215611319578081fd5b611322836112cf565b9150611330602084016112cf565b90509250929050565b60008060006060848603121561134d578081fd5b611356846112cf565b9250611364602085016112cf565b9150604084013590509250925092565b60008060008060808587031215611389578081fd5b611392856112cf565b935060206113a18187016112cf565b935060408601359250606086013567ffffffffffffffff808211156113c4578384fd5b818801915088601f8301126113d7578384fd5b8135818111156113e9576113e9611b5e565b604051601f8201601f191681018501838111828210171561140c5761140c611b5e565b60405281815283820185018b1015611422578586fd5b81858501868301379081019093019390935250939692955090935050565b60008060408385031215611452578182fd5b61145b836112cf565b9150602083013561146b81611b74565b809150509250929050565b60008060408385031215611488578182fd5b611491836112cf565b946020939093013593505050565b6000602082840312156114b0578081fd5b815161130081611b74565b6000602082840312156114cc578081fd5b813561130081611b85565b6000602082840312156114e8578081fd5b815161130081611b85565b600060208284031215611504578081fd5b5035919050565b60008151808452815b8181101561153057602081850181015186830182015201611514565b818111156115415782602083870101525b50601f01601f19169290920160200192915050565b6001600160a01b0391909116815260200190565b6001600160a01b038581168252841660208201526040810183905260806060820181905260009061159d9083018461150b565b9695505050505050565b901515815260200190565b600060208252611300602083018461150b565b6020808252602b908201527f455243373231456e756d657261626c653a206f776e657220696e646578206f7560408201526a74206f6620626f756e647360a81b606082015260800190565b60208082526032908201527f4552433732313a207472616e7366657220746f206e6f6e20455243373231526560408201527131b2b4bb32b91034b6b83632b6b2b73a32b960711b606082015260800190565b60208082526026908201527f4f776e61626c653a206e6577206f776e657220697320746865207a65726f206160408201526564647265737360d01b606082015260800190565b6020808252601c908201527f4552433732313a20746f6b656e20616c7265616479206d696e74656400000000604082015260600190565b60208082526024908201527f4552433732313a207472616e7366657220746f20746865207a65726f206164646040820152637265737360e01b606082015260800190565b60208082526019908201527f4552433732313a20617070726f766520746f2063616c6c657200000000000000604082015260600190565b6020808252602c908201527f4552433732313a206f70657261746f7220717565727920666f72206e6f6e657860408201526b34b9ba32b73a103a37b5b2b760a11b606082015260800190565b60208082526038908201527f4552433732313a20617070726f76652063616c6c6572206973206e6f74206f7760408201527f6e6572206e6f7220617070726f76656420666f7220616c6c0000000000000000606082015260800190565b6020808252602a908201527f4552433732313a2062616c616e636520717565727920666f7220746865207a65604082015269726f206164647265737360b01b606082015260800190565b60208082526029908201527f4552433732313a206f776e657220717565727920666f72206e6f6e657869737460408201526832b73a103a37b5b2b760b91b606082015260800190565b6020808252818101527f4552433732313a206d696e7420746f20746865207a65726f2061646472657373604082015260600190565b6020808252602c908201527f4552433732313a20617070726f76656420717565727920666f72206e6f6e657860408201526b34b9ba32b73a103a37b5b2b760a11b606082015260800190565b6020808252818101527f4f776e61626c653a2063616c6c6572206973206e6f7420746865206f776e6572604082015260600190565b60208082526029908201527f4552433732313a207472616e73666572206f6620746f6b656e2074686174206960408201526839903737ba1037bbb760b91b606082015260800190565b60208082526021908201527f4552433732313a20617070726f76616c20746f2063757272656e74206f776e656040820152603960f91b606082015260800190565b60208082526031908201527f4552433732313a207472616e736665722063616c6c6572206973206e6f74206f6040820152701ddb995c881b9bdc88185c1c1c9bdd9959607a1b606082015260800190565b6020808252602c908201527f455243373231456e756d657261626c653a20676c6f62616c20696e646578206f60408201526b7574206f6620626f756e647360a01b606082015260800190565b6020808252601690820152752ab730b13632903a379031b630b4b6903a37b5b2b71760511b604082015260600190565b90815260200190565b9182526001600160a01b0316602082015260400190565b60008219821115611ad657611ad6611b48565b500190565b600082821015611aed57611aed611b48565b500390565b600281046001821680611b0657607f821691505b60208210811415611b2757634e487b7160e01b600052602260045260246000fd5b50919050565b6000600019821415611b4157611b41611b48565b5060010190565b634e487b7160e01b600052601160045260246000fd5b634e487b7160e01b600052604160045260246000fd5b8015158114611b8257600080fd5b50565b6001600160e01b031981168114611b8257600080fdfea2646970667358221220540709d884c16fb36f5dde296e8053b0a9aa641783820fb2255a89dc0b7eeba764736f6c63430008000033",
  "devdoc": {
    "kind": "dev",
    "methods": {
      "approve(address,uint256)": {
        "details": "See {IERC721-approve}."
      },
      "balanceOf(address)": {
        "details": "See {IERC721-balanceOf}."
      },
      "getApproved(uint256)": {
        "details": "See {IERC721-getApproved}."
      },
      "isApprovedForAll(address,address)": {
        "details": "See {IERC721-isApprovedForAll}."
      },
      "name()": {
        "details": "See {IERC721Metadata-name}."
      },
      "owner()": {
        "details": "Returns the address of the current owner."
      },
      "ownerOf(uint256)": {
        "details": "See {IERC721-ownerOf}."
      },
      "renounceOwnership()": {
        "details": "Leaves the contract without owner. It will not be possible to call `onlyOwner` functions anymore. Can only be called by the current owner. NOTE: Renouncing ownership will leave the contract without an owner, thereby removing any functionality that is only available to the owner."
      },
      "safeTransferFrom(address,address,uint256)": {
        "details": "See {IERC721-safeTransferFrom}."
      },
      "safeTransferFrom(address,address,uint256,bytes)": {
        "details": "See {IERC721-safeTransferFrom}."
      },
      "setApprovalForAll(address,bool)": {
        "details": "See {IERC721-setApprovalForAll}."
      },
      "supportsInterface(bytes4)": {
        "details": "See {IERC165-supportsInterface}."
      },
      "symbol()": {
        "details": "See {IERC721Metadata-symbol}."
      },
      "tokenByIndex(uint256)": {
        "details": "See {IERC721Enumerable-tokenByIndex}."
      },
      "tokenOfOwnerByIndex(address,uint256)": {
        "details": "See {IERC721Enumerable-tokenOfOwnerByIndex}."
      },
      "totalSupply()": {
        "details": "See {IERC721Enumerable-totalSupply}."
      },
      "transferFrom(address,address,uint256)": {
        "details": "See {IERC721-transferFrom}."
      },
      "transferOwnership(address)": {
        "details": "Transfers ownership of the contract to a new account (`newOwner`). Can only be called by the current owner."
      }
    },
    "version": 1
  },
  "userdoc": {
    "kind": "user",
    "methods": {},
    "version": 1
  },
  "storageLayout": {
    "storage": [
      {
        "astId": 715,
        "contract": "contracts/NakamotOsERC721.sol:NakamotOsERC721",
        "label": "_name",
        "offset": 0,
        "slot": "0",
        "type": "t_string_storage"
      },
      {
        "astId": 717,
        "contract": "contracts/NakamotOsERC721.sol:NakamotOsERC721",
        "label": "_symbol",
        "offset": 0,
        "slot": "1",
        "type": "t_string_storage"
      },
      {
        "astId": 721,
        "contract": "contracts/NakamotOsERC721.sol:NakamotOsERC721",
        "label": "_owners",
        "offset": 0,
        "slot": "2",
        "type": "t_mapping(t_uint256,t_address)"
      },
      {
        "astId": 725,
        "contract": "contracts/NakamotOsERC721.sol:NakamotOsERC721",
        "label": "_balances",
        "offset": 0,
        "slot": "3",
        "type": "t_mapping(t_address,t_uint256)"
      },
      {
        "astId": 729,
        "contract": "contracts/NakamotOsERC721.sol:NakamotOsERC721",
        "label": "_tokenApprovals",
        "offset": 0,
        "slot": "4",
        "type": "t_mapping(t_uint256,t_address)"
      },
      {
        "astId": 735,
        "contract": "contracts/NakamotOsERC721.sol:NakamotOsERC721",
        "label": "_operatorApprovals",
        "offset": 0,
        "slot": "5",
        "type": "t_mapping(t_address,t_mapping(t_address,t_bool))"
      },
      {
        "astId": 1658,
        "contract": "contracts/NakamotOsERC721.sol:NakamotOsERC721",
        "label": "_ownedTokens",
        "offset": 0,
        "slot": "6",
        "type": "t_mapping(t_address,t_mapping(t_uint256,t_uint256))"
      },
      {
        "astId": 1662,
        "contract": "contracts/NakamotOsERC721.sol:NakamotOsERC721",
        "label": "_ownedTokensIndex",
        "offset": 0,
        "slot": "7",
        "type": "t_mapping(t_uint256,t_uint256)"
      },
      {
        "astId": 1665,
        "contract": "contracts/NakamotOsERC721.sol:NakamotOsERC721",
        "label": "_allTokens",
        "offset": 0,
        "slot": "8",
        "type": "t_array(t_uint256)dyn_storage"
      },
      {
        "astId": 1669,
        "contract": "contracts/NakamotOsERC721.sol:NakamotOsERC721",
        "label": "_allTokensIndex",
        "offset": 0,
        "slot": "9",
        "type": "t_mapping(t_uint256,t_uint256)"
      },
      {
        "astId": 7,
        "contract": "contracts/NakamotOsERC721.sol:NakamotOsERC721",
        "label": "_owner",
        "offset": 0,
        "slot": "10",
        "type": "t_address"
      },
      {
        "astId": 2734,
        "contract": "contracts/NakamotOsERC721.sol:NakamotOsERC721",
        "label": "nakamotOsErc20",
        "offset": 0,
        "slot": "11",
        "type": "t_contract(NakamotOsERC20)2722"
      },
      {
        "astId": 2736,
        "contract": "contracts/NakamotOsERC721.sol:NakamotOsERC721",
        "label": "_tokenURI",
        "offset": 0,
        "slot": "12",
        "type": "t_string_storage"
      }
    ],
    "types": {
      "t_address": {
        "encoding": "inplace",
        "label": "address",
        "numberOfBytes": "20"
      },
      "t_array(t_uint256)dyn_storage": {
        "base": "t_uint256",
        "encoding": "dynamic_array",
        "label": "uint256[]",
        "numberOfBytes": "32"
      },
      "t_bool": {
        "encoding": "inplace",
        "label": "bool",
        "numberOfBytes": "1"
      },
      "t_contract(NakamotOsERC20)2722": {
        "encoding": "inplace",
        "label": "contract NakamotOsERC20",
        "numberOfBytes": "20"
      },
      "t_mapping(t_address,t_bool)": {
        "encoding": "mapping",
        "key": "t_address",
        "label": "mapping(address => bool)",
        "numberOfBytes": "32",
        "value": "t_bool"
      },
      "t_mapping(t_address,t_mapping(t_address,t_bool))": {
        "encoding": "mapping",
        "key": "t_address",
        "label": "mapping(address => mapping(address => bool))",
        "numberOfBytes": "32",
        "value": "t_mapping(t_address,t_bool)"
      },
      "t_mapping(t_address,t_mapping(t_uint256,t_uint256))": {
        "encoding": "mapping",
        "key": "t_address",
        "label": "mapping(address => mapping(uint256 => uint256))",
        "numberOfBytes": "32",
        "value": "t_mapping(t_uint256,t_uint256)"
      },
      "t_mapping(t_address,t_uint256)": {
        "encoding": "mapping",
        "key": "t_address",
        "label": "mapping(address => uint256)",
        "numberOfBytes": "32",
        "value": "t_uint256"
      },
      "t_mapping(t_uint256,t_address)": {
        "encoding": "mapping",
        "key": "t_uint256",
        "label": "mapping(uint256 => address)",
        "numberOfBytes": "32",
        "value": "t_address"
      },
      "t_mapping(t_uint256,t_uint256)": {
        "encoding": "mapping",
        "key": "t_uint256",
        "label": "mapping(uint256 => uint256)",
        "numberOfBytes": "32",
        "value": "t_uint256"
      },
      "t_string_storage": {
        "encoding": "bytes",
        "label": "string",
        "numberOfBytes": "32"
      },
      "t_uint256": {
        "encoding": "inplace",
        "label": "uint256",
        "numberOfBytes": "32"
      }
    }
  }
}