{
  "address": "0xC61346627AAf12EF13Ce06463Cba92A3f980C855",
  "abi": [
    {
      "inputs": [
        {
          "internalType": "string",
          "name": "name_",
          "type": "string"
        },
        {
          "internalType": "string",
          "name": "symbol_",
          "type": "string"
        },
        {
          "internalType": "uint256",
          "name": "maxSupply",
          "type": "uint256"
        },
        {
          "internalType": "address",
          "name": "bagHolder",
          "type": "address"
        },
        {
          "internalType": "address",
          "name": "nftTokenAddress_",
          "type": "address"
        },
        {
          "internalType": "uint256",
          "name": "maxNFTSupply_",
          "type": "uint256"
        },
        {
          "internalType": "uint256",
          "name": "blocksTilLotto",
          "type": "uint256"
        },
        {
          "internalType": "bytes32",
          "name": "keyHash_",
          "type": "bytes32"
        },
        {
          "internalType": "address",
          "name": "vrfCoordinator",
          "type": "address"
        },
        {
          "internalType": "address",
          "name": "linkToken",
          "type": "address"
        },
        {
          "internalType": "uint256",
          "name": "linkFee",
          "type": "uint256"
        }
      ],
      "stateMutability": "nonpayable",
      "type": "constructor"
    },
    {
      "anonymous": false,
      "inputs": [
        {
          "indexed": true,
          "internalType": "address",
          "name": "owner",
          "type": "address"
        },
        {
          "indexed": true,
          "internalType": "address",
          "name": "spender",
          "type": "address"
        },
        {
          "indexed": false,
          "internalType": "uint256",
          "name": "value",
          "type": "uint256"
        }
      ],
      "name": "Approval",
      "type": "event"
    },
    {
      "anonymous": false,
      "inputs": [
        {
          "indexed": true,
          "internalType": "address",
          "name": "burner",
          "type": "address"
        },
        {
          "indexed": false,
          "internalType": "uint256",
          "name": "amount",
          "type": "uint256"
        }
      ],
      "name": "Burn",
      "type": "event"
    },
    {
      "anonymous": false,
      "inputs": [
        {
          "indexed": true,
          "internalType": "address",
          "name": "from",
          "type": "address"
        },
        {
          "indexed": true,
          "internalType": "address",
          "name": "to",
          "type": "address"
        },
        {
          "indexed": false,
          "internalType": "uint256",
          "name": "value",
          "type": "uint256"
        }
      ],
      "name": "Transfer",
      "type": "event"
    },
    {
      "inputs": [],
      "name": "ONE",
      "outputs": [
        {
          "internalType": "uint256",
          "name": "",
          "type": "uint256"
        }
      ],
      "stateMutability": "view",
      "type": "function"
    },
    {
      "inputs": [
        {
          "internalType": "address",
          "name": "owner",
          "type": "address"
        },
        {
          "internalType": "address",
          "name": "spender",
          "type": "address"
        }
      ],
      "name": "allowance",
      "outputs": [
        {
          "internalType": "uint256",
          "name": "",
          "type": "uint256"
        }
      ],
      "stateMutability": "view",
      "type": "function"
    },
    {
      "inputs": [
        {
          "internalType": "address",
          "name": "spender",
          "type": "address"
        },
        {
          "internalType": "uint256",
          "name": "amount",
          "type": "uint256"
        }
      ],
      "name": "approve",
      "outputs": [
        {
          "internalType": "bool",
          "name": "",
          "type": "bool"
        }
      ],
      "stateMutability": "nonpayable",
      "type": "function"
    },
    {
      "inputs": [
        {
          "internalType": "address",
          "name": "account",
          "type": "address"
        }
      ],
      "name": "balanceOf",
      "outputs": [
        {
          "internalType": "uint256",
          "name": "",
          "type": "uint256"
        }
      ],
      "stateMutability": "view",
      "type": "function"
    },
    {
      "inputs": [
        {
          "internalType": "uint256",
          "name": "amount",
          "type": "uint256"
        }
      ],
      "name": "burn",
      "outputs": [
        {
          "internalType": "bool",
          "name": "",
          "type": "bool"
        }
      ],
      "stateMutability": "nonpayable",
      "type": "function"
    },
    {
      "inputs": [
        {
          "internalType": "address",
          "name": "",
          "type": "address"
        }
      ],
      "name": "burnedTokens",
      "outputs": [
        {
          "internalType": "uint256",
          "name": "",
          "type": "uint256"
        }
      ],
      "stateMutability": "view",
      "type": "function"
    },
    {
      "inputs": [],
      "name": "decimals",
      "outputs": [
        {
          "internalType": "uint8",
          "name": "",
          "type": "uint8"
        }
      ],
      "stateMutability": "view",
      "type": "function"
    },
    {
      "inputs": [
        {
          "internalType": "address",
          "name": "spender",
          "type": "address"
        },
        {
          "internalType": "uint256",
          "name": "subtractedValue",
          "type": "uint256"
        }
      ],
      "name": "decreaseAllowance",
      "outputs": [
        {
          "internalType": "bool",
          "name": "",
          "type": "bool"
        }
      ],
      "stateMutability": "nonpayable",
      "type": "function"
    },
    {
      "inputs": [
        {
          "internalType": "uint256",
          "name": "randomValue",
          "type": "uint256"
        }
      ],
      "name": "expand",
      "outputs": [
        {
          "internalType": "uint256[]",
          "name": "expandedValues",
          "type": "uint256[]"
        }
      ],
      "stateMutability": "view",
      "type": "function"
    },
    {
      "inputs": [
        {
          "internalType": "address",
          "name": "spender",
          "type": "address"
        },
        {
          "internalType": "uint256",
          "name": "addedValue",
          "type": "uint256"
        }
      ],
      "name": "increaseAllowance",
      "outputs": [
        {
          "internalType": "bool",
          "name": "",
          "type": "bool"
        }
      ],
      "stateMutability": "nonpayable",
      "type": "function"
    },
    {
      "inputs": [],
      "name": "lottoBlock",
      "outputs": [
        {
          "internalType": "uint256",
          "name": "",
          "type": "uint256"
        }
      ],
      "stateMutability": "view",
      "type": "function"
    },
    {
      "inputs": [],
      "name": "maxNFTSupply",
      "outputs": [
        {
          "internalType": "uint256",
          "name": "",
          "type": "uint256"
        }
      ],
      "stateMutability": "view",
      "type": "function"
    },
    {
      "inputs": [],
      "name": "name",
      "outputs": [
        {
          "internalType": "string",
          "name": "",
          "type": "string"
        }
      ],
      "stateMutability": "view",
      "type": "function"
    },
    {
      "inputs": [],
      "name": "nftToken",
      "outputs": [
        {
          "internalType": "contract NakamotOsERC721",
          "name": "",
          "type": "address"
        }
      ],
      "stateMutability": "view",
      "type": "function"
    },
    {
      "inputs": [
        {
          "internalType": "address",
          "name": "",
          "type": "address"
        }
      ],
      "name": "ownerTicketCount",
      "outputs": [
        {
          "internalType": "uint256",
          "name": "",
          "type": "uint256"
        }
      ],
      "stateMutability": "view",
      "type": "function"
    },
    {
      "inputs": [
        {
          "internalType": "bytes32",
          "name": "requestId",
          "type": "bytes32"
        },
        {
          "internalType": "uint256",
          "name": "randomness",
          "type": "uint256"
        }
      ],
      "name": "rawFulfillRandomness",
      "outputs": [],
      "stateMutability": "nonpayable",
      "type": "function"
    },
    {
      "inputs": [
        {
          "internalType": "uint256",
          "name": "userProvidedSeed",
          "type": "uint256"
        }
      ],
      "name": "startLottery",
      "outputs": [
        {
          "internalType": "bytes32",
          "name": "requestId",
          "type": "bytes32"
        }
      ],
      "stateMutability": "nonpayable",
      "type": "function"
    },
    {
      "inputs": [],
      "name": "symbol",
      "outputs": [
        {
          "internalType": "string",
          "name": "",
          "type": "string"
        }
      ],
      "stateMutability": "view",
      "type": "function"
    },
    {
      "inputs": [],
      "name": "ticketCount",
      "outputs": [
        {
          "internalType": "uint256",
          "name": "",
          "type": "uint256"
        }
      ],
      "stateMutability": "view",
      "type": "function"
    },
    {
      "inputs": [
        {
          "internalType": "uint256",
          "name": "",
          "type": "uint256"
        }
      ],
      "name": "ticketToOwner",
      "outputs": [
        {
          "internalType": "address",
          "name": "",
          "type": "address"
        }
      ],
      "stateMutability": "view",
      "type": "function"
    },
    {
      "inputs": [],
      "name": "totalSupply",
      "outputs": [
        {
          "internalType": "uint256",
          "name": "",
          "type": "uint256"
        }
      ],
      "stateMutability": "view",
      "type": "function"
    },
    {
      "inputs": [
        {
          "internalType": "address",
          "name": "recipient",
          "type": "address"
        },
        {
          "internalType": "uint256",
          "name": "amount",
          "type": "uint256"
        }
      ],
      "name": "transfer",
      "outputs": [
        {
          "internalType": "bool",
          "name": "",
          "type": "bool"
        }
      ],
      "stateMutability": "nonpayable",
      "type": "function"
    },
    {
      "inputs": [
        {
          "internalType": "address",
          "name": "sender",
          "type": "address"
        },
        {
          "internalType": "address",
          "name": "recipient",
          "type": "address"
        },
        {
          "internalType": "uint256",
          "name": "amount",
          "type": "uint256"
        }
      ],
      "name": "transferFrom",
      "outputs": [
        {
          "internalType": "bool",
          "name": "",
          "type": "bool"
        }
      ],
      "stateMutability": "nonpayable",
      "type": "function"
    }
  ],
  "transactionHash": "0xa8f0f87018e442fa46bf72ce682fdfe2286d64a277d596a98f50c46cc18d9a13",
  "args": [
    "Nakamot-Os",
    "BOX",
    "500000000000000000000",
    "0x1C35E441b21E528Dd8385Fd41d1578bE18E247D3",
    "0x06603063c6Ceba8AE362E6A49Bc11A03493D8820",
    10,
    4,
    "0x6c3699283bda56ad74f6b855546325b68d482e983852a7a82979cc4807b641f4",
    "0xdD3782915140c8f3b190B5D67eAc6dc5760C46E9",
    "0xa36085F69e2889c224210F603D836748e7dC0088",
    "100000000000000000"
  ],
  "solcInputHash": "4b5c6258fa91706ef9b4c93f5c655ba5",
  "bytecode": "0x60c0604052670de0b6b3a7640000600a553480156200001d57600080fd5b5060405162001a5738038062001a5783398181016040526101608110156200004457600080fd5b81019080805160405193929190846401000000008211156200006557600080fd5b9083019060208201858111156200007b57600080fd5b82516401000000008111828201881017156200009657600080fd5b82525081516020918201929091019080838360005b83811015620000c5578181015183820152602001620000ab565b50505050905090810190601f168015620000f35780820380516001836020036101000a031916815260200191505b50604052602001805160405193929190846401000000008211156200011757600080fd5b9083019060208201858111156200012d57600080fd5b82516401000000008111828201881017156200014857600080fd5b82525081516020918201929091019080838360005b83811015620001775781810151838201526020016200015d565b50505050905090810190601f168015620001a55780820380516001836020036101000a031916815260200191505b506040908152602082810151918301516060840151608085015160a086015160c087015160e0880151610100890151610120909901518d51989b50959950939792969195909491849184918e918e916200020691600391908501906200042a565b5080516200021c9060049060208401906200042a565b50506005805460ff19166012179055506001600160601b0319606092831b811660a052911b166080526200025a888a6001600160e01b03620002ab16565b600880546001600160a01b0319166001600160a01b0398909816979097179096555050600992909255600b919091554301600c55600d805460ff1916905560115550506000600e5550620004cf9050565b6001600160a01b03821662000307576040805162461bcd60e51b815260206004820152601f60248201527f45524332303a206d696e7420746f20746865207a65726f206164647265737300604482015290519081900360640190fd5b6200031e600083836001600160e01b03620003c316565b6200033a81600254620003c860201b62000c901790919060201c565b6002556001600160a01b038216600090815260208181526040909120546200036d91839062000c90620003c8821b17901c565b6001600160a01b0383166000818152602081815260408083209490945583518581529351929391927fddf252ad1be2c89b69c2b068fc378daa952ba7f163c4a11628f55a4df523b3ef9281900390910190a35050565b505050565b60008282018381101562000423576040805162461bcd60e51b815260206004820152601b60248201527f536166654d6174683a206164646974696f6e206f766572666c6f770000000000604482015290519081900360640190fd5b9392505050565b828054600181600116156101000203166002900490600052602060002090601f016020900481019282601f106200046d57805160ff19168380011785556200049d565b828001600101855582156200049d579182015b828111156200049d57825182559160200191906001019062000480565b50620004ab929150620004af565b5090565b620004cc91905b80821115620004ab5760008155600101620004b6565b90565b60805160601c60a05160601c61155462000503600039806108d45280611203525080610b1052806111d452506115546000f3fe608060405234801561001057600080fd5b506004361061014d5760003560e01c806370a08231116100c3578063b536c6861161007c578063b536c6861461044d578063c2ee3a0814610473578063c6bec93a1461047b578063cfbd900f14610498578063d06fcba8146104a0578063dd62ed3e146104a85761014d565b806370a082311461039a57806394985ddd146103c057806395d89b41146103e55780639df34663146103ed578063a457c2d7146103f5578063a9059cbb146104215761014d565b80632b08e824116101155780632b08e82414610267578063313ce567146102a057806339509351146102be57806342966c68146102ea57806354fdfd4e14610307578063682904a51461032d5761014d565b806306fdde0314610152578063095ea7b3146101cf57806318160ddd1461020f57806323b872dd1461022957806324c979a31461025f575b600080fd5b61015a6104d6565b6040805160208082528351818301528351919283929083019185019080838360005b8381101561019457818101518382015260200161017c565b50505050905090810190601f1680156101c15780820380516001836020036101000a031916815260200191505b509250505060405180910390f35b6101fb600480360360408110156101e557600080fd5b506001600160a01b03813516906020013561056c565b604080519115158252519081900360200190f35b610217610589565b60408051918252519081900360200190f35b6101fb6004803603606081101561023f57600080fd5b506001600160a01b0381358116916020810135909116906040013561058f565b610217610604565b6102846004803603602081101561027d57600080fd5b503561060a565b604080516001600160a01b039092168252519081900360200190f35b6102a8610625565b6040805160ff9092168252519081900360200190f35b6101fb600480360360408110156102d457600080fd5b506001600160a01b03813516906020013561062e565b6101fb6004803603602081101561030057600080fd5b5035610682565b6102176004803603602081101561031d57600080fd5b50356001600160a01b03166107f8565b61034a6004803603602081101561034357600080fd5b503561080a565b60408051602080825283518183015283519192839290830191858101910280838360005b8381101561038657818101518382015260200161036e565b505050509050019250505060405180910390f35b610217600480360360208110156103b057600080fd5b50356001600160a01b03166108ae565b6103e3600480360360408110156103d657600080fd5b50803590602001356108c9565b005b61015a610954565b6102176109b5565b6101fb6004803603604081101561040b57600080fd5b506001600160a01b0381351690602001356109bb565b6101fb6004803603604081101561043757600080fd5b506001600160a01b038135169060200135610a0f565b6102176004803603602081101561046357600080fd5b50356001600160a01b0316610a23565b610217610a35565b6102176004803603602081101561049157600080fd5b5035610a3b565b610217610c50565b610284610c56565b610217600480360360408110156104be57600080fd5b506001600160a01b0381358116916020013516610c65565b60038054604080516020601f60026000196101006001881615020190951694909404938401819004810282018101909252828152606093909290918301828280156105625780601f1061053757610100808354040283529160200191610562565b820191906000526020600020905b81548152906001019060200180831161054557829003601f168201915b5050505050905090565b6000610580610579610cf1565b8484610cf5565b50600192915050565b60025490565b600061059c848484610de1565b6105fa846105a8610cf1565b6001600160a01b03871660009081526001602052604081206105f5918791906105cf610cf1565b6001600160a01b031681526020810191909152604001600020549063ffffffff610f2e16565b610cf5565b5060019392505050565b60095481565b600f602052600090815260409020546001600160a01b031681565b60055460ff1690565b600061058061063b610cf1565b846105f5856001600061064c610cf1565b6001600160a01b03908116825260208083019390935260409182016000908120918c16815292529020549063ffffffff610c9016565b600061069561068f610cf1565b83610f8b565b61069d610cf1565b6001600160a01b03167fcc16f5dbb4873280815c1ee09dbd06736cffcc184412cf7a71a0fdb75d397ca5836040518082815260200191505060405180910390a261071382600760006106ed610cf1565b6001600160a01b031681526020810191909152604001600020549063ffffffff610c9016565b6007600061071f610cf1565b6001600160a01b03168152602081019190915260400160002055600c544310156107f057600061075a600a548461107990919063ffffffff16565b905060005b818110156107b75761076f610cf1565b600e80546000908152600f6020526040902080546001600160a01b0319166001600160a01b039390931692909217909155546107ac906001610c90565b600e5560010161075f565b506107c881601060006106ed610cf1565b601060006107d4610cf1565b6001600160a01b03168152602081019190915260400160002055505b506001919050565b60106020526000908152604090205481565b606060095467ffffffffffffffff8111801561082557600080fd5b5060405190808252806020026020018201604052801561084f578160200160208202803683370190505b50905060005b6009548110156108a85760408051602080820186905281830184905282518083038401815260609092019092528051910120825183908390811061089557fe5b6020908102919091010152600101610855565b50919050565b6001600160a01b031660009081526020819052604090205490565b336001600160a01b037f00000000000000000000000000000000000000000000000000000000000000001614610946576040805162461bcd60e51b815260206004820152601f60248201527f4f6e6c7920565246436f6f7264696e61746f722063616e2066756c66696c6c00604482015290519081900360640190fd5b61095082826110e3565b5050565b60048054604080516020601f60026000196101006001881615020190951694909404938401819004810282018101909252828152606093909290918301828280156105625780601f1061053757610100808354040283529160200191610562565b600c5481565b60006105806109c8610cf1565b846105f585600160006109d9610cf1565b6001600160a01b03908116825260208083019390935260409182016000908120918c16815292529020549063ffffffff610f2e16565b6000610580610a1c610cf1565b8484610de1565b60076020526000908152604090205481565b600a5481565b600d5460009060ff1615610a96576040805162461bcd60e51b815260206004820152601e60248201527f546865206c6f7474657279206861736e27742073746172746564207965740000604482015290519081900360640190fd5b600c54431015610aed576040805162461bcd60e51b815260206004820152601f60248201527f546865206c6f74746572792068617320616c7265616479207374617274656400604482015290519081900360640190fd5b601154604080516370a0823160e01b815230600482015290516001600160a01b037f000000000000000000000000000000000000000000000000000000000000000016916370a08231916024808301926020929190829003018186803b158015610b5657600080fd5b505afa158015610b6a573d6000803e3d6000fd5b505050506040513d6020811015610b8057600080fd5b50511015610bd5576040805162461bcd60e51b815260206004820152601e60248201527f4e6f7420656e6f756768204c494e4b20746f2070617920746865206665650000604482015290519081900360640190fd5b6000600e5411610c2c576040805162461bcd60e51b815260206004820181905260248201527f4d757374206265207469636b65747320746f207374617274206c6f7474657279604482015290519081900360640190fd5b600d805460ff19166001179055600b54601154610c4a9190846111d0565b92915050565b600e5481565b6008546001600160a01b031681565b6001600160a01b03918216600090815260016020908152604080832093909416825291909152205490565b600082820183811015610cea576040805162461bcd60e51b815260206004820152601b60248201527f536166654d6174683a206164646974696f6e206f766572666c6f770000000000604482015290519081900360640190fd5b9392505050565b3390565b6001600160a01b038316610d3a5760405162461bcd60e51b81526004018080602001828103825260248152602001806114fb6024913960400191505060405180910390fd5b6001600160a01b038216610d7f5760405162461bcd60e51b81526004018080602001828103825260228152602001806114936022913960400191505060405180910390fd5b6001600160a01b03808416600081815260016020908152604080832094871680845294825291829020859055815185815291517f8c5be1e5ebec7d5bd14f71427d1e84f3dd0314c0f7b2291e5b200ac8c7c3b9259281900390910190a3505050565b6001600160a01b038316610e265760405162461bcd60e51b81526004018080602001828103825260258152602001806114d66025913960400191505060405180910390fd5b6001600160a01b038216610e6b5760405162461bcd60e51b81526004018080602001828103825260238152602001806114706023913960400191505060405180910390fd5b610e76838383611392565b6001600160a01b038316600090815260208190526040902054610e9f908263ffffffff610f2e16565b6001600160a01b038085166000908152602081905260408082209390935590841681522054610ed4908263ffffffff610c9016565b6001600160a01b038084166000818152602081815260409182902094909455805185815290519193928716927fddf252ad1be2c89b69c2b068fc378daa952ba7f163c4a11628f55a4df523b3ef92918290030190a3505050565b600082821115610f85576040805162461bcd60e51b815260206004820152601e60248201527f536166654d6174683a207375627472616374696f6e206f766572666c6f770000604482015290519081900360640190fd5b50900390565b6001600160a01b038216610fd05760405162461bcd60e51b81526004018080602001828103825260218152602001806114b56021913960400191505060405180910390fd5b610fdc82600083611392565b6001600160a01b038216600090815260208190526040902054611005908263ffffffff610f2e16565b6001600160a01b038316600090815260208190526040902055600254611031908263ffffffff610f2e16565b6002556040805182815290516000916001600160a01b038516917fddf252ad1be2c89b69c2b068fc378daa952ba7f163c4a11628f55a4df523b3ef9181900360200190a35050565b60008082116110cf576040805162461bcd60e51b815260206004820152601a60248201527f536166654d6174683a206469766973696f6e206279207a65726f000000000000604482015290519081900360640190fd5b60008284816110da57fe5b04949350505050565b60606110ee8261080a565b905060005b81518110156111ca576000611126600e5484848151811061111057fe5b602002602001015161139790919063ffffffff16565b6000818152600f602090815260408083205460085482516340c10f1960e01b81526001600160a01b039283166004820181905260016024830152935196975092959116936340c10f1993604480850194919392918390030190829087803b15801561119057600080fd5b505af11580156111a4573d6000803e3d6000fd5b505050506040513d60208110156111ba57600080fd5b5050600190920191506110f39050565b50505050565b60007f00000000000000000000000000000000000000000000000000000000000000006001600160a01b0316634000aea07f000000000000000000000000000000000000000000000000000000000000000085878660405160200180838152602001828152602001925050506040516020818303038152906040526040518463ffffffff1660e01b815260040180846001600160a01b03166001600160a01b0316815260200183815260200180602001828103825283818151815260200191508051906020019080838360005b838110156112b557818101518382015260200161129d565b50505050905090810190601f1680156112e25780820380516001836020036101000a031916815260200191505b50945050505050602060405180830381600087803b15801561130357600080fd5b505af1158015611317573d6000803e3d6000fd5b505050506040513d602081101561132d57600080fd5b505060008481526006602052604081205461134d908690859030906113fc565b60008681526006602052604090205490915061137090600163ffffffff610c9016565b6000868152600660205260409020556113898582611443565b95945050505050565b505050565b6000816113eb576040805162461bcd60e51b815260206004820152601860248201527f536166654d6174683a206d6f64756c6f206279207a65726f0000000000000000604482015290519081900360640190fd5b8183816113f457fe5b069392505050565b60408051602080820196909652808201949094526001600160a01b039290921660608401526080808401919091528151808403909101815260a09092019052805191012090565b60408051602080820194909452808201929092528051808303820181526060909201905280519101209056fe45524332303a207472616e7366657220746f20746865207a65726f206164647265737345524332303a20617070726f766520746f20746865207a65726f206164647265737345524332303a206275726e2066726f6d20746865207a65726f206164647265737345524332303a207472616e736665722066726f6d20746865207a65726f206164647265737345524332303a20617070726f76652066726f6d20746865207a65726f2061646472657373a2646970667358221220a5d53873f8e6b152fad6180faa9e8adb0cf36c764363510f47be4ef512cf279164736f6c63430006090033",
  "devdoc": {
    "methods": {
      "allowance(address,address)": {
        "details": "See {IERC20-allowance}."
      },
      "approve(address,uint256)": {
        "details": "See {IERC20-approve}. Requirements: - `spender` cannot be the zero address."
      },
      "balanceOf(address)": {
        "details": "See {IERC20-balanceOf}."
      },
      "decimals()": {
        "details": "Returns the number of decimals used to get its user representation. For example, if `decimals` equals `2`, a balance of `505` tokens should be displayed to a user as `5,05` (`505 / 10 ** 2`). Tokens usually opt for a value of 18, imitating the relationship between Ether and Wei. This is the value {ERC20} uses, unless {_setupDecimals} is called. NOTE: This information is only used for _display_ purposes: it in no way affects any of the arithmetic of the contract, including {IERC20-balanceOf} and {IERC20-transfer}."
      },
      "decreaseAllowance(address,uint256)": {
        "details": "Atomically decreases the allowance granted to `spender` by the caller. This is an alternative to {approve} that can be used as a mitigation for problems described in {IERC20-approve}. Emits an {Approval} event indicating the updated allowance. Requirements: - `spender` cannot be the zero address. - `spender` must have allowance for the caller of at least `subtractedValue`."
      },
      "increaseAllowance(address,uint256)": {
        "details": "Atomically increases the allowance granted to `spender` by the caller. This is an alternative to {approve} that can be used as a mitigation for problems described in {IERC20-approve}. Emits an {Approval} event indicating the updated allowance. Requirements: - `spender` cannot be the zero address."
      },
      "name()": {
        "details": "Returns the name of the token."
      },
      "symbol()": {
        "details": "Returns the symbol of the token, usually a shorter version of the name."
      },
      "totalSupply()": {
        "details": "See {IERC20-totalSupply}."
      },
      "transfer(address,uint256)": {
        "details": "See {IERC20-transfer}. Requirements: - `recipient` cannot be the zero address. - the caller must have a balance of at least `amount`."
      },
      "transferFrom(address,address,uint256)": {
        "details": "See {IERC20-transferFrom}. Emits an {Approval} event indicating the updated allowance. This is not required by the EIP. See the note at the beginning of {ERC20}. Requirements: - `sender` and `recipient` cannot be the zero address. - `sender` must have a balance of at least `amount`. - the caller must have allowance for ``sender``'s tokens of at least `amount`."
      }
    }
  },
  "userdoc": {
    "methods": {}
  },
  "storageLayout": {
    "storage": [
      {
        "astId": 4407,
        "contract": "contracts/NakamotOsERC20.sol:NakamotOsERC20",
        "label": "_balances",
        "offset": 0,
        "slot": "0",
        "type": "t_mapping(t_address,t_uint256)"
      },
      {
        "astId": 4413,
        "contract": "contracts/NakamotOsERC20.sol:NakamotOsERC20",
        "label": "_allowances",
        "offset": 0,
        "slot": "1",
        "type": "t_mapping(t_address,t_mapping(t_address,t_uint256))"
      },
      {
        "astId": 4415,
        "contract": "contracts/NakamotOsERC20.sol:NakamotOsERC20",
        "label": "_totalSupply",
        "offset": 0,
        "slot": "2",
        "type": "t_uint256"
      },
      {
        "astId": 4417,
        "contract": "contracts/NakamotOsERC20.sol:NakamotOsERC20",
        "label": "_name",
        "offset": 0,
        "slot": "3",
        "type": "t_string_storage"
      },
      {
        "astId": 4419,
        "contract": "contracts/NakamotOsERC20.sol:NakamotOsERC20",
        "label": "_symbol",
        "offset": 0,
        "slot": "4",
        "type": "t_string_storage"
      },
      {
        "astId": 4421,
        "contract": "contracts/NakamotOsERC20.sol:NakamotOsERC20",
        "label": "_decimals",
        "offset": 0,
        "slot": "5",
        "type": "t_uint8"
      },
      {
        "astId": 81,
        "contract": "contracts/NakamotOsERC20.sol:NakamotOsERC20",
        "label": "nonces",
        "offset": 0,
        "slot": "6",
        "type": "t_mapping(t_bytes32,t_uint256)"
      },
      {
        "astId": 4914,
        "contract": "contracts/NakamotOsERC20.sol:NakamotOsERC20",
        "label": "burnedTokens",
        "offset": 0,
        "slot": "7",
        "type": "t_mapping(t_address,t_uint256)"
      },
      {
        "astId": 4916,
        "contract": "contracts/NakamotOsERC20.sol:NakamotOsERC20",
        "label": "nftToken",
        "offset": 0,
        "slot": "8",
        "type": "t_contract(NakamotOsERC721)5364"
      },
      {
        "astId": 4918,
        "contract": "contracts/NakamotOsERC20.sol:NakamotOsERC20",
        "label": "maxNFTSupply",
        "offset": 0,
        "slot": "9",
        "type": "t_uint256"
      },
      {
        "astId": 4923,
        "contract": "contracts/NakamotOsERC20.sol:NakamotOsERC20",
        "label": "ONE",
        "offset": 0,
        "slot": "10",
        "type": "t_uint256"
      },
      {
        "astId": 4925,
        "contract": "contracts/NakamotOsERC20.sol:NakamotOsERC20",
        "label": "keyHash",
        "offset": 0,
        "slot": "11",
        "type": "t_bytes32"
      },
      {
        "astId": 4927,
        "contract": "contracts/NakamotOsERC20.sol:NakamotOsERC20",
        "label": "lottoBlock",
        "offset": 0,
        "slot": "12",
        "type": "t_uint256"
      },
      {
        "astId": 4929,
        "contract": "contracts/NakamotOsERC20.sol:NakamotOsERC20",
        "label": "hasLotteryStarted",
        "offset": 0,
        "slot": "13",
        "type": "t_bool"
      },
      {
        "astId": 4931,
        "contract": "contracts/NakamotOsERC20.sol:NakamotOsERC20",
        "label": "ticketCount",
        "offset": 0,
        "slot": "14",
        "type": "t_uint256"
      },
      {
        "astId": 4935,
        "contract": "contracts/NakamotOsERC20.sol:NakamotOsERC20",
        "label": "ticketToOwner",
        "offset": 0,
        "slot": "15",
        "type": "t_mapping(t_uint256,t_address)"
      },
      {
        "astId": 4939,
        "contract": "contracts/NakamotOsERC20.sol:NakamotOsERC20",
        "label": "ownerTicketCount",
        "offset": 0,
        "slot": "16",
        "type": "t_mapping(t_address,t_uint256)"
      },
      {
        "astId": 4941,
        "contract": "contracts/NakamotOsERC20.sol:NakamotOsERC20",
        "label": "fee",
        "offset": 0,
        "slot": "17",
        "type": "t_uint256"
      }
    ],
    "types": {
      "t_address": {
        "encoding": "inplace",
        "label": "address",
        "numberOfBytes": "20"
      },
      "t_bool": {
        "encoding": "inplace",
        "label": "bool",
        "numberOfBytes": "1"
      },
      "t_bytes32": {
        "encoding": "inplace",
        "label": "bytes32",
        "numberOfBytes": "32"
      },
      "t_contract(NakamotOsERC721)5364": {
        "encoding": "inplace",
        "label": "contract NakamotOsERC721",
        "numberOfBytes": "20"
      },
      "t_mapping(t_address,t_mapping(t_address,t_uint256))": {
        "encoding": "mapping",
        "key": "t_address",
        "label": "mapping(address => mapping(address => uint256))",
        "numberOfBytes": "32",
        "value": "t_mapping(t_address,t_uint256)"
      },
      "t_mapping(t_address,t_uint256)": {
        "encoding": "mapping",
        "key": "t_address",
        "label": "mapping(address => uint256)",
        "numberOfBytes": "32",
        "value": "t_uint256"
      },
      "t_mapping(t_bytes32,t_uint256)": {
        "encoding": "mapping",
        "key": "t_bytes32",
        "label": "mapping(bytes32 => uint256)",
        "numberOfBytes": "32",
        "value": "t_uint256"
      },
      "t_mapping(t_uint256,t_address)": {
        "encoding": "mapping",
        "key": "t_uint256",
        "label": "mapping(uint256 => address)",
        "numberOfBytes": "32",
        "value": "t_address"
      },
      "t_string_storage": {
        "encoding": "bytes",
        "label": "string",
        "numberOfBytes": "32"
      },
      "t_uint256": {
        "encoding": "inplace",
        "label": "uint256",
        "numberOfBytes": "32"
      },
      "t_uint8": {
        "encoding": "inplace",
        "label": "uint8",
        "numberOfBytes": "1"
      }
    }
  }
}